00020018133                BALIZA 12V GIRATORIA P/ATORNILLAR  0000086056
0002001AF124-C             FARO HALOGENO REDONDO 24V CRISTAL  0000066101
0002001AF125-C             FARO HALOGENO REDONDO 12V CRISTAL  0000059371
0002001AF412               BALIZA ELECTRONICA 48 LEDS 12V     0000372379
0002001AFA700-R            COLGANTE C/MOD Y OJO DE GATO ROJO  0000018565
0002001AFA700-V            COLGANTE C/MOD Y OJO DE GATO VERDE 0000018565
0002001AFA800              REDONDO BICOLOR 110mm              0000025822
0002001AFA800V             REDONDO BICOLOR 110mm.C/VENT       0000029381
0002001AFA900-R            REDONDO 100mm-ROJO                 0000025488
0002001AFA900B             TRASERO BIPOLAR PORTALAMP BAYONETA 0000025488
0002001AFA910-AZ           REDONDO 100mm C/SOPORTE-AZUL       0000025360
0002001AFA910N-A           F.UNIV. CUERPO/SOPORTE NEGRO AMBAR 0000025360
0002002AF2515C-A           ESTRIVERO 5 RAYOS CROMADO          0000027962
0002002AF2515C-C           ESTRIBERO 5 RAYOS CROMADO CRISTAL  0000027962
0002002AF2515C-R           ESTRIBERO 5 RAYOS CROMADO ROJO     0000027962
0002002AF2515C-V           ESTRIBERO 5 RAYOS CROMADO VERDE    0000027962
0002002AF3001              RECT TRASERO 95 x 185.ROJO-AMBAR   0000038974
0002002AF3001E             LUZ DE TECHO C/2 TUBOS Y LLAVE     0000164580
0002002AF3002-CRA          RECTANG TRIPLE 3 PORTALAM C-R-A    0000033221
0002002AF3002-RRA          RECTANG TRIPLE 3 PORTALAM R-R-A    0000033221
0002002AF3003-A            FARO UNIV C/2PORTALAMP AMBAR       0000009922
0002002AF3003-AZ           FARO UNIV C/2 PORTALAMP AZUL       0000009922
0002002AF3003-C            FARO UNIV C/2 PORTALAMP CRISTAL    0000009922
0002002AF3003-R            FARO UNIV C/2 PORTALAMP ROJO       0000009922
0002002AF3003-V            FARO UNIV. C/2 POTALAMP VERDE      0000009922
0002002AF3040              PLAFON PLAST C/GUARNI C/LLAVE      0000030867
0002002AF711-A             RECTANGULAR 57 x 95 mm-AMBAR       0000010157
0002002AF711-C             RECTANGULAR 57 x 95 mm CRISTAL     0000010157
0002002AF711-R             RECTANGULAR 57 x 95 mm ROJO        0000010157
0002002AF711-V             RECTANGULAR 57 x 95 mm VERDE       0000010157
0002002AF711D              RECT FLEX DOBLE-ROJO-AMBAR         0000029516
0002002AF711P              PLAFONIER AUSILI                   0000013213
0002002AF760TD             TRASERO DERECHO RENAULT MIDLUM     0000158004
0002002AF760TI             TRASERO IZQ RENAULT MIDLUM         0000158004
0002002AF770TD             TRASERO DERECHO RENAULT PREMIUM    0000303240
0002002AF770TI             TRASERO IZQUIERDO RENAULT PREMIUM  0000303240
0002002AF778-A             SAFARI 9x9 AMBAR                   0000007954
0002002AF778-AZ            SAFARI 9x9 AZUL                    0000007954
0002002AF778-C             SAFARI 9x9 CRISTAL                 0000007954
0002002AF778-R             SAFARI 9x9 ROJO                    0000007954
0002002AF778-V             SAFARI 9x9 VERDE                   0000007954
0002002AF850               REDONDO BICOLOR 140mm              0000027458
0002002AF850V              REDONDO BICOLOR 140mm.C/VENT       0000031130
0002002AF860               LENTE FRANJAS HORIZ. PORT.BAYON.PLA0000027458
0002002AF860T              TRAS FRANJA HORIZ TRICOLOR         0000031566
0002004AF8000              TRASERO IVECO 4 PORTALAMP          0000083007
0002004AF8004              TRASERO DAILY y TURBO DAILY        0000070941
0002004AF8006              FARO TRASERO IVECO DAILY NUEVA     0000107058
0002004AF8008              TRAS EUROCARGO,EUROTRAKER,DAILY    0000095491
0002004AF8009D             FARO VISERA STRALIS DERECHO        0000079481
0002004AF8009I             FARO VISERA STRALIS IZQUIERDO      0000079481
0002004AF8010D             TRASERO DERECHO IVECO 2008         0000130164
0002004AF8010I             TRASERO IZQUIERDO IVECO 2008       0000130164
0002004AFA8010D            TRASERO EUROCARGO 2008-DER         0000130164
0002004AFA8010I            TRASERO EUROCARGO 2008-IZQ         0000130164
0002005AF1136              FARO LATERAL VW C/PORTALAM EXTERNO 0000026557
0002005AF14000             TRASERO F CARGO,VW,DEUTZ           0000095505
0002005AF14000V            TRASERO F CARGO,VW,DEUTZ.V/VENT    0000095505
0002005AF14005             FARO PARAGOLPE CARGO               0000025025
0002005AF1404              FARO LATERAL TIPO VW NUEVO         0000052093
0002005AF1423              D.FAZ CUAD. FORD CARGO NACIONAL    0000053840
0002005AF1462              FARO POSICION DE CABINA CAMIONES   0000030132
0002005AFA1169             DELANTERO CAMION VW CRISTAL D/I    0000057137
0002005AFA1404D            DELANT GIRO LATERAL VW-DER         0000052093
0002005AFA1404I            DELANT GIRO LATERAL VW-IZQ         0000052093
0002005AFA1410             TRASERO VW NUEVO                   0000169304
0002005AFA1423             DOBLE FAZ CUADRADO FORD CARGO      0000053840
0002005AFA1428C            DE TECHO FORD CARGO-VW-CENTRAL     0000058733
0002005AFA1428D            DE TECHO FORD CARGO-DER            0000058733
0002005AFA1428I            DE TECHO FORD CARGO-IZQ            0000058733
0002005AFA940.1DA          F CARGO.GIRO DELANT DER AMBAR      0000052598
0002005AFA940.1DC          F CARGO.GIRO DELANT DER CRISTAL    0000052598
0002005AFA940.1IA          F CARGO.GIRO DELANT IZQ AMBAR      0000054902
0002005AFA940.1IC          F CARGO.GIRO DELANT IZQ CRISTAL    0000054902
0002007AF1024              EXTERIOR CABINA 87->               0000022663
0002007AF1052D             FARO POS.DELANT.MB AXOR DER.       0000103740
0002007AF1052I             FARO POS.DELANT.MB AXOR IZQ.       0000103740
0002007AF1054              FARO LATERAL MB.AXOR               0000228228
0002007AF1057D             FARO TECHO ACCELO-ATEGO-AXOR DER.  0000087652
0002007AF1057I             FARO TECHO ACCELO-ATEGO-AXOR IZQ.  0000087652
0002007AF1058D             FARO LATERAL MB.ATEGO              0000055348
0002007AF1058I             FARO LATERAL MB.ATEGO              0000055348
0002007AF1078D             FARO GIRO ATEGO CRISTAL ACR. DER.  0000135149
0002007AF1078I             FARO GIRO ATEGO CRISTAL ACR.IZQ.   0000135149
0002007AF1191A             FARO TRAS.ACRIL.RANDON 2004        0000063776
0002007AF1191R             FARO.TRAS.ACRIL.RANDON 2004        0000063776
0002007AF1214D             FARO DERECHO                       0000041515
0002007AF1214I             FARO IZQUIERDO                     0000041515
0002007AF1215              GIRO DELANTERO 87 EN ADELANTE      0000025025
0002007AF1245              G/BARRO MB 1517/1518.SCANIA 111    0000023122
0002007AF1250-A            CABINA 1526 AMBAR                  0000018960
0002007AF1250-C            CABINA 1526 CRISTAL                0000018960
0002007AF1250-R            CABINA 1526 ROJO                   0000018960
0002007AF1250-V            CABINA 1526 VERDE                  0000018960
0002007AF1255DD            DEL DER 1215 87 EN ADELANTE        0000036213
0002007AF1255DD-C          DEL DER 1215 87-> CRISTAL          0000036213
0002007AF1255DI            DEL IZQ 1215 87 EN ADELANTE        0000036213
0002007AF1255DI-C          DEL IZQ 1215 87->.CRISTAL          0000036213
0002007AF1256              FARO DOBLE FAZ GUARDABARRO 1526    0000051838
0002007AF1517              M BENZ 1517                        0000049578
0002007AF1517P             FARO PLAFON MB VIEJOS              0000082609
0002007AF1517V             M BENZ 1517 C/VENT                 0000052851
0002007AF1526              M BENZ 3 PORTALAMP                 0000048735
0002007AF1526T             M BENZ TRICOLOR                    0000055858
0002007AF1526TV            M BENZ TRICOLOR C/VENT             0000055858
0002007AF1526V             M BENZ 3 PORTALAMP C/VENT          0000052186
0002007AF1550              TRASERO 11x42 4 PORTALAMP          0000068755
0002007AF1550V             TRASERO 11x42 4 PORTALAMP C/VENT   0000074966
0002007AF1560              TRASERO 11x42 4 PORTAL C/CONEC ORIH0000112628
0002007AF1560V             TRAS 11X42 4 PORTAL C/CONEC ORIG VE0000117777
0002007AF1580TD            FARO TRASERO DERECHO MB AXOR       0000374868
0002007AF1580TI            FARO TRASERO IZQUIERDO MB AXOR     0000425494
0002007AF608-A             FARO LATERAL MB608-AMBAR           0000018386
0002007AF660DD             FARO POS.Y GIRO MB ACCELO Y FAVORIT0000258999
0002007AF660DI             FARO POS.Y GIRO MB ACECELO Y FAVORI0000258999
0002007AF675D              FARO DEL.GIRO MB.1938/1944 DERECHO 0000212651
0002007AF675I              FARO DEL.GIRO MB 1938/1944 IZQ.    0000212651
0002007AF710DD             FARO DELANTERO TROMPA MB710 DERECHO0000063776
0002007AF710DI             FARO DELANTERO TROMPA MB710 IZQUIER0000063776
0002007AFA1052DI           FARO POSICION DELANERO IZQ MB AXOR 0000103740
0002007AFA1058D            FARO LATERAL DERECHO MB ATEGO      0000103740
0002007AFA1058I            FARO LATERAL IZQ MB ATEGO          0000084460
0002008AF1146-A            RED LATERAL 90mm-AMBAR             0000023876
0002008AF1146-R            RED LATERAL 90mm-ROJO              0000023876
0002008AF1146-V            RED LATERAL 90mm-VERDE             0000023876
0002008AF1192              TRASERO ACRILICO RANDON BICOLOR    0000063776
0002008AF1254-A            TRASERO 3 PORTALAMP AMBAR          0000051966
0002008AF1254-R            TRASERO 3 PORTALAMP ROJO           0000051966
0002008AF2514-A            RED 100mm 1/2 REJA.AMBAR           0000017939
0002008AF2514-AZ           RED 100mm 1/2 REJA-AZUL            0000017939
0002008AF2514-C            RED 100mm 1/2 REJA-CRISTAL         0000017939
0002008AF2514-R            RED 100mm 1/2 REJA-ROJO            0000017939
0002008AF2514-V            RED 100mm 1/2 REJA-VERDE           0000017939
0002008AF2514C-A           FARO ESTRIBERO 3 RAYOS CROMADO AMBA0000027962
0002008AF2514C-R           FARO ESTRIBERO 3 RAYOS CROMADO ROJO0000027962
0002008AF2515-A            RED 100mm REJA-AMBAR               0000017939
0002008AF2515-AZ           RED 100mm REJA-AZUL                0000017939
0002008AF2515-C            RED 100mm REJA-CRISTAL             0000017939
0002008AF2515-R            RED 100mm REJA-ROJO                0000017939
0002008AF2515-V            RED 100mm REJA-VERDE               0000017939
0002008AF2516-A            RED 100mm SIN REJA-AMBAR           0000017939
0002008AF2516-AZ           RED 100mm SIN REJA-AZUL            0000017939
0002008AF2516-C            RED 100mm SIN REJA-CRISTAL         0000017939
0002008AF2516-R            RED 100mm SIN REJA-ROJO            0000017939
0002008AF2516-V            RED 100mm SIN REJA-VERDE           0000017939
0002008AFA1142-A           REDONDO P/FARO 1147-AMBAR          0000049157
0002008AFA1142-R           REDONDO P/FARO 1147-ROJO           0000049157
0002008AFA1144             REDONDO P/FARO 1147-BICOLOR        0000049157
0002008AFA1147D            TRAS COMPETO LINEA 2000-DER        0000502038
0002008AFA1147I            TRAS COMPLETO LINEA 2000-IZQ       0000502038
0002008AFA1189D            TRAS COMPLETO LINEA 2004-DER       0000502038
0002008AFA1189I            TRAS COMPLETO LINEA 2004-IZQ       0000502038
0002008AFA1191E-A          FARO 48 LEDS 135 MM DIAM. AMBAR    0000264298
0002008AFA1191E-C          FARO 48 LEDS 135 MM DIAM. CRISTAL  0000264298
0002008AFA1191E-R          FARO 48 LEDS 135 MM DIAM.          0000264298
0002009AF112               TRASERO DER/IZQ CAMION 112         0000088501
0002009AF112/3DD           DEL DER CAMION 112 y 113           0000088355
0002009AF112/3DI           DEL IZQ CAMION 112 y 113           0000088355
0002009AF114DD             FARO DEL.DER.SCANIA SERIE 4        0000127744
0002009AF114DI             FARO DEL. IZQ. SCANIA SERIE 4      0000127744
0002009AF243D              FARO TECHO SCANIA 112/113 DER      0000035750
0002009AF243I              FARO TECHO SCANIA 112/113 IZQ      0000035750
0002009AF701D              DEL.POSIC.Y GIRO VOLVO NH10 DERECHO0000199564
0002009AF701I              DEL.POSIC.Y GIRO VOLVO NH10 IZQUIER0000199564
0002009AF702D              TRASERO VOLVO NH10 DERECHO PLASTICO0000266149
0002009AF702I              TRASERO VOLVO NH10 IZQUIERDO PLAST 0000266149
0002009AF704D              FARO DE GIRO FH 16 DERECHO         0000141342
0002009AF704I              FARO DE GIRO FH 16 IZQUIERDO       0000141342
0002009AFA113TD            TRAS DER CAMION 113                0000084492
0002009AFA113TI            TRAS IZQ CAMION 113                0000098813
0002009AFA114TD            TRAS.DER. ACRILICO 7 PORTALAMP     0000266787
0002009AFA114TI            TRAS.IZQ. ACRILICO 7 PORTALAMP     0000266787
0002009AFA115D             DELANTERO SERIE 5 IZQ/DER          0000361271
0002009AFA115TD            FARO TRASERO DERECHO SCANIA S4 09  0000370080
0002009AFA115TI            FARO TRASERO IZQ SCANIA S4 09      0000370080
0002009G110                GUIA LATERAL DE PARAGOLPE          0000010750
0002010ALA113TD            PARA FARO 113TD                    0000034201
0002010ALA113TI            PARA FARO 113TI                    0000041022
0002010ALA114              PARA FAROS 114                     0000045038
0002010ALA115TD            LENTE P/FARO 115T SERIE 4 "09      0000114848
0002010ALA115TI            LENTE P/FARO 115T SERIE 4 "09      0000114848
0002010ALA3030-A           PARA FARO 3030/3100/4100-AMBAR     0000008419
0002010ALA3030-C           PARA FARO 3030/3100/4100-CRISTAL   0000008419
0002010ALA3030-R           PARA FARO 3030/3100/4100-ROJO      0000008419
0002010ALA800              PARA FARO 800                      0000010643
0002010ALA8013-A           IVECO CURSOR-TECTOR.GUARDABARROS   0000027136
0002010ALA910-A            PARA FARO 910/900 AMBAR            0000005520
0002011AL112/3DD           PARA FARO 112/3DD                  0000035814
0002011AL112/3DI           PARA FARO 112/3DI                  0000035814
0002011AL1146-A            LENTE LATERAL RANDON 2000 AMBAR    0000006703
0002011AL1146-R            LENTE LATERAL RANDON 2000 ROJO     0000006703
0002011AL1245              PARA FARO 1245                     0000005330
0002011AL1250-A            PARA FARO 1250-AMBAR               0000007852
0002011AL1250-AZ           PARA FARO 1250-AZUL                0000007852
0002011AL1250-C            PARA FARO 1250-CRISTAL             0000007852
0002011AL1250-R            PARA FARO 1250-ROJO                0000007852
0002011AL1250-V            PARA FARO 1250-VERDE               0000007852
0002011AL1254-A            PARA FARO 1254-AMBAR               0000010470
0002011AL1254-R            PARA FARO 1254-ROJO                0000010470
0002011AL14000             PARA FARO 14000                    0000030643
0002011AL1410              PARA FARO 1410                     0000046859
0002011AL1515-A            PARA FARO 2514/15/16-AMBAR         0000007150
0002011AL1515-AZ           PARA FARO 2514/15/16-AZUL          0000007150
0002011AL1515-C            PARA FARO 2514/15/16-CRISTAL       0000007150
0002011AL1515-R            PARA FARO 2514/15/16-ROJO          0000007150
0002011AL1515-V            PARA FARO 2514/15/16-VERDE         0000007150
0002011AL1517              PARA FARO 1517                     0000014311
0002011AL1526              PARA FARO 1526                     0000013293
0002011AL1526T             PARA FARO 1526T                    0000018803
0002011AL1550              PARA FARO 1550                     0000030104
0002011AL1580D             LENTE P/FARO 1580 MB AXOR DERECHO  0000129723
0002011AL1580I             LENTE P/FARO 1580 MB AXOR IZQUIERDO0000129723
0002011AL201-A             PARA FARO 201-AMBAR                0000003404
0002011AL201-R             PARA FARO 201-ROJO                 0000003404
0002011AL202-7-R           PARA FARO 202-7 ROJO               0000002903
0002011AL202-7-V           PARA FARO 202-7 VERDE              0000002903
0002011AL203/16-A          P/FARO TRAS. MONTENEGRO AMBAR      0000005858
0002011AL203/16-R          P/FARO TRAS. MONTENEGRO M80 ROJO   0000005858
0002011AL204D              PARA FARO 204-17D                  0000025432
0002011AL204I              PARA FARO 204-17I                  0000025432
0002011AL205-A             PARA FARO 205-19 AMBAR             0000006566
0002011AL205-R             PARA FARO 205-19 ROJO              0000006566
0002011AL3001              PARA FARO 3001                     0000014620
0002011AL3003-A            LENTE UNIV POLICARB. FARO 3003 AMBA0000002439
0002011AL3003-AZ           PARA FARO 3003 AZUL                0000002439
0002011AL3003-C            PARA FARO 3003 CRISTAL             0000002439
0002011AL3003-R            LENTE UNIV.POLICARB.FARO 3003 ROJO 0000002439
0002011AL3003-V            LENTE UNIV.POLICARB. FARO 3003 VERD0000002439
0002011AL608-A             PARA FARO 608 AMBAR                0000008172
0002011AL608-R             PARA FARO 608 ROJO                 0000008172
0002011AL702               PARA FARO 702                      0000101697
0002011AL705               LENTE P/ FARO 705                  0000086184
0002011AL711-A             PARA FARO 711-AMBAR                0000002842
0002011AL711-AZ            PARA FARO 711-AZUL                 0000002842
0002011AL711-C             PARA FARO 711-CRISTAL              0000002842
0002011AL711-R             PARA FARO 711-ROJO                 0000002842
0002011AL711-V             PARA FARO 711-VERDE                0000002842
0002011AL760               LENTE PARA FARO 760                0000095760
0002011AL770               LENTE PARA FARO 770                0000134064
0002011AL778-A             PARA FARO 778-AMBAR                0000002506
0002011AL778-AZ            PARA FARO 778-AZUL                 0000002506
0002011AL778-C             PARA FARO 778-CRISTAL              0000002506
0002011AL778-R             PARA FARO 778-ROJO                 0000002506
0002011AL778-V             PARA FARO 778-VERDE                0000002506
0002011AL8000/1            PARA FARO 8000 GRANDE-ROJO         0000013184
0002011AL8000/2-A          PARA FARO 8000 CHICO-AMBAR         0000006839
0002011AL8000/2-C          PARA FARO 8000 CHICO-CRISTAL       0000006839
0002011AL8004D             PARA FARO 8004 DERECHO             0000035452
0002011AL8004I             PARA FARO 8004 IZQUIERDO           0000035452
0002011AL8006              LENTE FARO 8006 NUEVA DAYLI 2009   0000039050
0002011AL8008              PARA FARO 8008                     0000086184
0002011AL850               PARA FARO 850                      0000010236
0002011AL860               LENTE PARA FARO 860                0000010236
0002011AL910-R             PARA FARO 910 ROJO                 0000005520
0002011ALA8010             IVECO EUROCARGO 2008 TRASERO       0000053287
0002012AF3030-A            FARO HELVETICA AMBAR               0000025839
0002012AF3030-R            HELVETICA ROJO                     0000025839
0002012AF3100-ACR          TRASERO 4 PORTALAM A-C-R           0000056545
0002012AF3100-RRA          TRASERO 4 PORTALAM R-R-A           0000056545
0002012AF4100              TRASERO ACRILICO 4 PORTLA BAYONETA 0000085174
0002013AF100               5 3/4".CHAPA.A/GOMA.PT43/45.NEGRO  0000103063
0002013AF101               5 3/4" CHAPA.A/GOMA.PT43/45.NARANJA0000083351
0002013AF200               7" CHAPA A/GOMA.PT43/45.NEGRO      0000013381
0002013AF201               7" CHAPA.A/GOMA.PT43/45.NARANJA    0000034790
0002014AF201-1A            FARO TRASERO REDONDO 1 POLO AMBAR  0000034790
0002014AF201-1R            FARO TRASERO REDONDE 1 POLO ROJO   0000034790
0002014AF201-3R            MONTENEGRO TRAS REDONDO 2 POLOS    0000034790
0002014AF202-7-R           FARO POSICION ROJO                 0000017571
0002014AF203/14-A          FARO TRASERO M80 1 POLO AMBAR      0000036145
0002014AF203/14-R          FARO TRASERO M80 1 POLO ROJO       0000036145
0002014AF204-17D           TRASERO M85 DERECHO                0000104582
0002014AF204-17I           TRASERO M85 IZQUIERDO              0000104582
0002014AF205-19A           FARO TRASERO M85 1 POLO AMBAR      0000036731
0002014AF205-19R           FARO TRASERO M85 1 POLO ROJO       0000036731
000201515/2                TAZA A ROSCA CON JUNTA Y TAPON     0000016469
000201547/34               TAZA A PRESION C/JUNTA Y TAPON     0000016859
000201556/06               BUJE CILINDRICO NYLON              0000008168
00020161008R               EUROTRAKKER JUEGO FARO PRINCIPAL   0000070255
00020161010R               FARO AUX EUROTRAKKER/EUROTECH JGO  0000039459
00020161018R               EUROTECH JUEGO FARO PRINCIPAL      0000072586
0002017AF501               7" UNIVERSAL C/CAPUCHON.PT43       0000004828
0002017AF502               5 3/4" UNIVERS C/CAPUCHON.PT43     0000004327
0002018AF1249AP            B.CHAPA/C.PLAST/PORTALAMP BAYONETA 0000020493
0002018AFA781AP            BASE PLASTICA/PORTALAMP. BAYONETA  0000009922
000201901011               JGO VENTILETE DUNA-UNO-FIORINO     0000071219
000201901011A              JGO VENTILETE DUNA-UNO-FIOR-ADESHIV0000081809
000201901014               JGO VENTILETE SIENA/PALIO 4 PUERTAS0000071219
000201901020               JGO VENTILETE F. UNO 3 PUERTAS     0000079879
000201901022               JGO VENTILETE FIAT PALIO 3 PUERTAS 0000079879
000201901200               JGO VENTILETE ACRIL SPRINTER       0000043306
000201901200E              JGO VENTIL ACRIL ENVOLVENTE SPRINTE0000076994
000201901308               JGO VENTILETE COURRIER/FIESTA 4P   0000071219
000201901602               JGO VENTILETE R9-R11               0000071219
000201901603               JGO VENTILETE R19-COLISA           0000071219
000201901603A              JGO VENTILETE R19-ADHESIVO 3M      0000081809
000201901606               JGO VENTILETE ACRIL REN CLIO 2 PTAS0000078009
000201901607               JGO VENTIL ACRIL CLIO 2/4P NVO.    0000071219
000201901608               JGO VENTIL REN CLIO-2 2 PTAS       0000086622
000201901702               JGO VENTIL ACRIL PEUGEOT PARTNER   0000072586
000201901705               JGO VENTILETE PEUGEOT 206 3 PTAS   0000084689
000201901706               JO VENTILETE ACRILICO P206 5P      0000071219
000201901800               JGO VENT ACRIL VW POLO/CADDY SEAT  0000072586
000201901803               JGO VENTILETE VW GOL 3P MOD.NVO.   0000084689
000201901804               JGO VENTILETE ACRIL GOL 4 PTAS UNVO0000071219
000201902109               JGO VENTIL TOYOTA NVA.05 DELANTERO 0000071219
0002020AF-160              CIMBEL LIBRE CON LAMPARA 10 W      0000039784
0002020TAXI-A              TAXI/REMIS AMARILLO DOBLE PORTALAM 0000041922
0002021AF3003E-A           4 LEDS POLICARB. INT. METAL AMBAR  0000040283
0002021AF3003E-C           4 LEDS POLICARB. INT. METAL CRISTAL0000040283
0002021AF3003E-R           4 LEDS POLICARB. INT. METAL ROJO   0000040283
0002021AF3333E-A           FARO REDONDO P/EMBUTIR ELECT. AMBAR0000283769
0002021AF3333E-C           FARO REDONDO P/EMBUTIR ELECT. CRIST0000283769
0002021AF3333E-R           FARO REDONDO P/EMBUTIR ELECT. ROJO 0000283769
0002021TL215               EQUIPO  12V ELECTRON. 12 LEDS SMD  0000069546
0002021TL225               EQUIPO 12V ELECTRON. 24 LEDS SMD   0000107992
0002021TL235               EQUIPO 12V ELECTRON. 36 LEDS SMD   0000147123
0002022AF1307R             FORD CARGO OPTICA RECTANGULAR      0000036263
0002022AF1307RG            FORD CARGO RECTANGULAR             0000030339
0002022AF1350R             FORD CARGO REDONDO                 0000053840
0002022AF1360R             FORD CARGO L/N                     0000039969
0002022AF1370R             FORD CARGO LINEA NUEVA 2011        0000051255
0002022AF1870R             VW CONTELLATION                    0000027498
0002022AF1880R             VW CONSTELLATION                   0000032462
0002022AF1890R             VW CONSTELLATION                   0000035202
0002023AF1176-A            FARO TECHO MARCO POLO VIEJO AMBAR  0000028728
0002023AF1176-C            FARO TECHO MARCO POLO VIEJO CRISTAL0000028728
0002023AF1176-R            FARO TECHO MARCO POLO ROJO         0000028728
000300116001               EMERG DIESEL (+)                   0000015530
000300116002               EMERG DIESEL (-)                   0000015530
000300116011               EMERG NAFTERO (+)                  0000011626
000300116012               EMERG NAFTERO (-)                  0000011626
000300116021               DIESEL TORNILLO "L" (+)            0000022297
000300116022               DIESEL TORNILLO "L" (-)            0000022297
000300116041               EMERG DIESEL PESADO 90mm (+)       0000024570
000300116042               EMERG DIESEL PESADO 90mm (-)       0000024570
000300116061               Borne de Bateria Peug-Ren.positivo 0000017693
000300116062               Borne de Bateria Peug-Ren.negativo 0000017693
000300116071               NAFTERO P/SOLDAR BRONCE (+)        0000008633
000300116072               NAFTERO P/SOLDAR BRONCE (-)        0000008633
000300116091               P/SOLDAR EST 35mm (+)              0000009799
000300116092               P/SOLDAR EST 35mm (-)              0000009799
000300116101               DIESEL P/SOLDAR BRONCE (+)         0000012457
000300116102               DIESEL P/SOLDAR BRONCE (-)         0000012457
000300116111               NAFTERO TORNILLO "L" (+)           0000017486
000300116112               NAFTERO TORNILLO "L" (-)           0000017486
000300116121               TERMINAL BATERIA FIAT 600          0000008526
000300116122               TERMINAL BATERIA FIAT 600          0000008526
000300116151               PEUGEOT CHAPA ZINCADA (+)          0000023916
000300116152               PEUGEOT CHAPA ZINCADA (-)          0000023916
000300116161               TERMINAL T/PEUGEOT (+)             0000027404
000300116162               TERMINAL T/PEUGEOT (-)             0000027404
000300116171               NAFTERO C/TORNILLOS ARRIBA (+)     0000014269
000300116172               NAFTERO C/TORNILLOS ARRIBA (-)     0000014269
000300116181               TERM CHAPA DE HIERRO (+)           0000009412
000300116182               TERM CHAPA DE HIERRO (-)           0000009412
000300116191               DIESEL C/TORNILLOS ARRIBA (+)      0000021315
000300116192               DIESEL C/TORNILLOS ARRIBA (-)      0000021315
000300116201               EXTRA REF.DIESEL HASTA CAB.95mm(+) 0000024955
000300116202               EXTRA REF DIESEL HASTA CAB 95mm(-) 0000024955
000300116221               DIESEL REFORZ TORN "L" (+)         0000029405
000300116222               DIESEL REFORZ TORN "L"(-)          0000029405
0003002No2500              COMUN P/CHASIS                     0000048645
0003002No2501              P/APLICACION SOBRE BATERIA         0000083294
0003002No2502              CON LLAVE                          0000076438
0003002No2504              CORTA CORRIENTE P/SERVICIO MEDIANO 0000114758
0003002No2508              LLAVIN P/CORTA CTE No2502 X9       0000006240
0003003CL2107              CLIPS BATERIA 25 AMPERES           0000003225
0003003CL2108              CLIPS P/BATERIA 50 AMP.            0000005248
0003003CL2109              CLIPS P/BATERIA 120 AMP            0000009580
0003003CL2110              CLIPS P/BATERIAS 250 AMP.          0000020061
0003003CL2116N             CLIPS P/BAT 25 AMP AISLADO NEGRO   0000003719
0003003CL2116R             CLIPS P/BAT 25 AMP AISLADO ROJO    0000003719
0003003CL2117N             CLIPS P/BAT 50 AMP AISLADO NEGRO   0000005509
0003003CL2117R             CLIPS P/BAT 50 AMP AISLADO ROJO    0000005509
0003003CL2119N             CLIPS P/BAT 250AMP AISLADO NEGRO   0000020900
0003003CL2119R             CLIPS P/BAT 250 AMP AISLADO ROJO   0000020900
0003004925                 TERM BRONCE ESTANADO 70mm          0000018112
0003004926                 TERM BRONCE ESTANADO 95mm          0000021611
0003004927                 TERM.DE BRONCE FUNDIDO 120mm       0000028548
0003005TC200               TERM COBRE 25mm                    0000003632
0003005TC201               TERM COBRE 35mm                    0000003632
0003005TC202               TERM COBRE 50mm                    0000004200
0003005TC203               TERM COBRE 70mm                    0000005573
0003005TC204               TERM COBRE 90 mm                   0000008251
0003005TC824               TERM.COBRE 50mm LIVIANO            0000012325
0003005TC825               TERM.COBRE 70mm LIVIANO            0000017440
0003005TC917               TERM COBRE ESTANADO 2mm            0000000843
0003005TC918               TERM COBRE ESTANADO 4mm            0000001096
0003005TC919               TERM COBRE ESTANADO 6mm            0000001705
0003005TC920               TERM COBRE ESTANADO 10mm           0000002760
0003005TC921               TERM COBRE ESTANADO 16mm           0000003642
0003005TC922               TERM COBRE ESTANADO 25mm           0000006553
0003005TC922/10            TERM COBRE EST 25mm AGUJ 10mm      0000006553
0003005TC923               TERM COBRE ESTANADO 35mm           0000008326
0003005TC923/10            TERM COBRE EST 35mm AGUJ 10mm      0000008326
0003005TC924               TERM COBRE ESTANADO 50mm           0000012161
000300610248               PARLANTES 2x1                      0000003002
000300610249               PARLANTES 2x0.35                   0000001369
000300610250               PARLANTES 2x0.50                   0000001797
000300710101               ENV.CHATO 2 X 0,35                 0000002066
000300710105               ENV.CHATO 2 X 1,5                  0000004137
000300710117               ENV.CHATO 4 X 0,20                 0000001934
000300710119               ENV.CHATO 6 X 0,20                 0000004523
000300810003-0,50S         UNIPOLAR 1 X 0,50 SURTIDOS         0000000834
000300810004-0,75S         UNIPOLAR 1 X 0,75 SURTIDO          0000000800
000300810005-1A            UNIPOLAR 1 X1 AMARILLO             0000000906
000300810005-1AZ           UNIPOLAR 1X1 AZUL                  0000000906
000300810005-1B            UNIPOLAR 1X1 BLANCO                0000000906
000300810005-1C            UNIPOLAR 1X1 CELESTE               0000000906
000300810005-1G            UNIPOLAR 1X1 GRIS                  0000000906
000300810005-1M            UNIPOLAR 1X1 MARRON                0000000906
000300810005-1N            UNIPOLAR 1X1 NEGRO                 0000000906
000300810005-1NAR          UNIPOLAR 1X1 NARANJA               0000000906
000300810005-1R            UNIPOLAR 1X1 ROJO                  0000000906
000300810005-1S            UNIPOLAR 1x1 SURTIDO               0000000906
000300810005-1V            UNIPOLAR 1X1 VERDE                 0000000906
000300810006-1,5A          UNIPOLAR 1X1,5 AMARILLO            0000001375
000300810006-1,5AZ         UNIPOLAR 1X1,5 AZUL                0000001375
000300810006-1,5B          UNIPOLAR 1X1,5 BLANCO              0000001375
000300810006-1,5C          UNIPOLAR 1X1,5 CELESTE             0000001375
000300810006-1,5G          UNIPOLAR 1X1.5 GRIS                0000001375
000300810006-1,5M          UNIPOLAR 1X1,5 MARRON              0000001375
000300810006-1,5N          UNIPOLAR 1X1,5 NEGRO               0000001375
000300810006-1,5NAR        UNIPOLAR 1X1.5 NARANJA             0000001375
000300810006-1,5R          UNIPOLAR 1X1,5 ROJO                0000001375
000300810006-1,5S          UNIPOLAR 1x1.5 SURTIDO             0000001375
000300810006-1,5V          UNIPOLAR 1X1,5 VERDE               0000001375
000300810008-2,5A          UNIPOLAR 1 X 2.5 AMARILLO          0000002020
000300810008-2,5AZ         UNIPOLAR 1X2,5 AZUL                0000002020
000300810008-2,5B          UNIPOLAR 1X2,5 BLANCO              0000002020
000300810008-2,5C          UNIPOLAR 1X2,5 CELESTE             0000002020
000300810008-2,5G          UNIPOLAR 1X2,5 GRIS                0000002020
000300810008-2,5M          UNIPOLAR 1X2.5 MARRON              0000002020
000300810008-2,5N          UNIPOLAR 1X2,5 NEGRO               0000002020
000300810008-2,5R          UNIPOLAR 1X2,5 ROJO                0000002020
000300810008-2,5S          UNIPOLAR 1x2,5 SURTIDO             0000002020
000300810008-2,5V          UNIPOLAR 1X2,5 VERDE               0000002020
000300810010-4AZ           UNIPOLAR 1X4 AZUL                  0000003099
000300810010-4B            UNIPOLAR 1X4 BLANCO                0000003099
000300810010-4M            UNIPOLAR 1X4 MARRON                0000003099
000300810010-4N            UNIPOLAR 1X4 NEGRO                 0000003099
000300810010-4R            UNIPOLAR 1X4 ROJO                  0000003099
000300810010-4S            UNIPOLAR 1x4 SURTIDO               0000003099
000300810010-4V            UNIPOLAR 1X4 VERDE                 0000003099
000300810012-6B            UNIPOLAR 1X6 BLANCO                0000004560
000300810012-6C            UNIPOLAR 1X6 CELESTE               0000004560
000300810012-6N            UNIPOLAR 1X6 NEGRO                 0000004560
000300810012-6R            UNIPOLAR 1X6 ROJO                  0000004560
000300810012-6S            UNIPOLAR 1x6 SURTIDO               0000004560
000300810012-6V            UNIPOLAR 1X6 VERDE                 0000004560
000300810013-10S           UNIPOLAR 1x10 SURTIDO              0000008086
000300910305               ENV. REDONDO 2 X 1                 0000002683
000300910305M              ENV REDONDO 2x1 ROLLO MENOR        0000002281
000300910306               ENV.REDONDO 2X1,5                  0000003899
000300910306M              ENV REDONDO 2X1,5 ROLLO MENOR      0000003314
000300910308               ENV. REDONDO 2 X 2.50              0000005739
000300910308M              ENV REDONDO 2x2,5 ROLLO MENOR      0000004879
000300910311               ENV. REDONDO 3 X 1                 0000003504
000300910311M              ENV REDONDO 3x1 ROLLO MENOR        0000002979
000300910312               ENV. REDONDO 3x1.5                 0000005088
000300910312M              ENV REDONDO 3x1,5 ROLLO MENOR      0000004325
000300910314               ENV. REDONDO 3 X 2.50              0000007961
000300910321               ENV. REDONDO 4 X 1                 0000004862
000300910321M              ENV REDONDO 4x1 ROLLO MENOR        0000004135
000300910322               ENV. REDONDO 4 X 1.50              0000006613
000300910324               ENV.REDONDO 4 X 2.50               0000009858
000300910329               ENV.REDONDO 5X1                    0000006317
000300910329M              ENV REDONDO 5x1 ROLLO MENOR        0000005370
000300910330               ENV.REDONDO 5X1,5                  0000009327
000300910330M              ENV REDONDO 5x1,5 ROLLO MENOR      0000007932
000300910331               ENV.REDONDO 7 X 1                  0000008716
000300910331M              EENV REDONDO 7x1 ROLLO MENOR       0000007407
000300910332               ENV.REDONDO 7X1,5                  0000012336
000300910332M              ENV REDONDO 7x1,5 ROLLO MENOR      0000010486
000300911022               ENV.RED. 5 X 1.50 CA EME           0000008576
000300913109M              ENV REDONDO 7x2,50 ROLLO MENOR     0000014509
000300913110               ENV.REDONDO 5 X 2,5                0000013542
000301010203               BIP PARALELO CHATO 2x0.50          0000001194
000301010204               BIP.PARALELO CHATO 2X0,80          0000001800
000301010205               BIP.PARALELO CHATO 2X1             0000002144
000301010206               BIP. PARALELO CHATO 2x1.5          0000003016
000301010208               BIP. PARALELO CHATO 2x2.50         0000004621
000301113200-16            CABLE DE ARRANQUE 1X16             0000013754
000301113201-25            CABLE DE ARRANQUE 1X25             0000021055
000301113202-35            CABLE DE ARRANQUE 1X35             0000029330
000301113203-50            CABLE DE ARRANQUE 1X50             0000042008
000301113204-70            CABLE DE ARRANQUE 1X70             0000059901
000301113205-95            CABLE DE ARRANQUE 1x90             0000079512
0003012981                 PALA HEMBRA C/COL.                 0000000137
0003012982                 AISLANTE PLASTICO HEMBRA           0000000102
0003012983                 AISLANTE PLASTICO MACHO            0000000102
0003013X92053              LAMPARA PORTATIL C/CLIPS 12V       0000089771
0003014No1614              BULON PARA BATERIA                 0000001192
0003015TER  9              K  0-OJAL 5,5mm                    0000000320
0003015TER 14              K 38-OJAL 6.5mm                    0000000766
0003015TER 39              K 39-OJAL 4.75mm                   0000000672
0003015TER 43 3/8          TERM. 43 3/8                       0000001113
0003015TER 47              K  1-HORQUILLA 4.5mm               0000000603
0003015TER915              K120-PALA HEMBRA                   0000000342
0003015TER916              PALA MACHO                         0000000305
0003015TER950              TERM PALA HEMBRA C/LENGUETA        0000000380
0003015TER951              TERM. PALA P/ CABLE 0.5 A 1.5 MM   0000000255
0003015TER954              PALA MACHO C/TRABA LARGO (=F8936)  0000000501
0003015TER958              OJAL 8.6mm                         0000000890
000301611051               BUJIA CA 1                         0000003286
00040010401-A              UNIV CHICO USO MULTIPLE.AMBAR      0000011196
00040010401-AZ             UNIV.CHICO USO MULTIPLE AZUL       0000011196
00040010401-C              UNIV CHICO USO MULTIPLE.CRISTAL    0000011196
00040010401-R              UNIV CHICO USO MULTIPLE.ROJO       0000011196
00040010401-V              UNIV CHICO USO MULTIPLE.VERDE      0000011196
00040010420-A              FARO UNIV C/SOPORTE FLEXIBLE AMBAR 0000011673
00040010506N               JGO.TRAS.POSIC.STOP.GIRO.NEGRO     0000062874
00040010570-A              UNIV C/SOPORTE PLASTICO.AMBAR      0000018640
00040010570-AZ             UNIV C/SOPORTE PLASTICO.AZUL       0000018640
00040010570-C              UNIV C/SOPORTE PLASTICO.CRISTAL    0000018640
00040010570-R              UNIV C/SOPORTE PLASTICO.ROJO       0000018640
00040010570-V              UNIV C/SOPORTE PLASTICO.VERDE      0000018640
00040010580-A              FARO MULTILPE UNIVERSAL AMBAR      0000015258
00040010580-C              FARO MULTIPLE UNIVERSAL CRISTAL    0000015258
00040010580-R              FARO MULTIPLE UNIVERSAL ROJO       0000015258
00040010600-A              REDONDO UNIV PLASTICO.AMBAR        0000008506
00040010600-AZ             REDONDO UNIVERSAL PLASTICO AZUL    0000008506
00040010600-C              REDONDO UNIV PLASTICO.CRISTAL      0000008506
00040010600-R              REDONDO UNIV PLASTICO.ROJO         0000008506
00040010600-V              REDONDO UNIV PLASTICO.VERDE        0000008506
00040010600H-A             REDONDO UNIV PLAST C/SOPORTE.AMBAR 0000008817
00040010600H-C             REDONDO UNIV PLAST C/SOPORTE.CRIST 0000008817
00040010600H-R             REDONDO UNIV PLAST C/SOPORTE.ROJO  0000008817
00040010600H-V             REDONDO UNIV PLAST C/SOPORTE.VERDE 0000008817
00040010600RT              REDONDO UNIVERSAL REBATIBLE AZUL   0000013367
00040010601                SOPORTE TRIPLE C/FARO 0600 ESMALT  0000047653
00040010601FL              SOPORTE TRIPLE FLEX.C/3 FAROS 600  0000053714
00040010602-A              REDONDO UNIV BASE ANCHA AMBAR      0000011413
00040010602-C              REDONDO UNIV BASE ANCHA.CRISTAL    0000011413
00040010602-R              REDONDO UNIV BASE ANCHA.ROJO       0000011413
00040010602-V              REDONDO UNIV BASE ANCHA.VERDE      0000011413
00040010603                ILUMINA PATENTE CHICO PLAST.       0000011617
00040010604                ILUMINA PATENTE MEDIANO            0000006809
00040010604-A              ILUMINA PATENTE MEDIANO-AMBAR      0000006809
00040010605                ILUMINA PATENTE GRANDE.            0000023256
00040010607-A              UNIVERSAL RECTANG C/1 PORTAL.AMBAR 0000010621
00040010607-AZ             UNIV.RECTANG.C/UN PORTAL.AZUL      0000010621
00040010607-C              UNIVERSAL RECTANG C/1 PORTAL.CRIST 0000010621
00040010607-R              UNIVERSAL RECTANG C/1 PORTAL.ROJO  0000010621
00040010607-V              UNIVERSAL RECTANG C/1 PORTAL.VERDE 0000010621
00040010608                FARO ILUMINA PATENTE BAIML         0000012206
00040010610                SOPORTE TRIPLE FARO 0607.CON FAROS 0000050126
00040010613                SOPORTE TRIPLE P/FARO 1035         0000047141
00040010614                SOPORTE TRIPLE C/3 FARITOS 0634S   0000046929
00040010614FL              SOP TRIPLE FLEXIBLE C/3 0634S      0000059280
00040010615/0600           JGO.SOP DOBLE LATERAL (Faro 600)   0000053370
00040010615/0634           JGO.SOP DOBLE LATERAL.2-634/1-1048 0000074184
00040010615/0634-2         JGO.SOP DOBLE LATERAL (Faro 634)   0000057303
00040010620/0634           JGO.SOP TRIPLE LATERAL (Faro 634)  0000084951
00040010634BAY-A           UNIV CUADRADO-BAYONETA-AMBAR       0000009848
00040010634BAY-C           UNIV CUADRADO-BAYONETA-CRISTAL     0000009848
00040010634BAY-R           UNIV CUADRADO-BAYONETA-ROJO        0000009848
00040010634BAY-V           UNIV CUADRADO-BAYONETA-VERDE       0000009848
00040010634FL-A            LATERALES DE CHASIS Y ACOPLADOS    0000018484
00040010634FL-AZ           LATERALES DE CHASIS Y ACOPLADOS    0000018484
00040010634FL-C            LATERALES DE CHASIS Y ACOPLADOS    0000018484
00040010634FL-R            LATERALES DE CHASIS Y ACOPLADOS    0000018484
00040010634FL-V            LATERALES DE CHASIS Y ACOPLADOS    0000018484
00040010634R-A             FARITO MULTIPLE UNIVERSAL          0000011053
00040010634R-R             FARITO MULTIPLE UNIVERSAL          0000011053
00040010634S-A             MULT UNIV CUADR PLAST NEGRO.AMBAR  0000008414
00040010634S-AZ            FARO MULT UNIV CUADR PLAST NEGRO   0000008414
00040010634S-C             MULT UNIV CUADR PLAST NEGRO.CRISTAL0000008414
00040010634S-R             MULT UNIV CUADR PLAST NEGRO.ROJO   0000008414
00040010634S-V             MULT UNIV CUADR PLAST NEGRO.VERDE  0000008414
00040010634T               JGO FARO TRAS.UNIV.DOBLE           0000034143
00040010634TT              JGO FARO TRASERO UNIV.TRIPLE       0000046125
00040010635-A              SOPORTE SIMPLE (0634 Y REFL) AMBAR 0000019834
00040010635-AZ             SOPORTE ISMPLE (0634 Y REFL) AZUL  0000019834
00040010635-C              SOPORTE SIMPLE (0634 Y REFL)CRISTAL0000019834
00040010635-R              SOPORTE SIMPLE (0634 Y REFL) ROJO  0000019834
00040010635-V              SOPORTE SIMPLE (0634 Y REFL) VERDE 0000019834
00040010636-A              SOPORTE SIMPLE C/FARO 0600 AMBAR   0000020028
00040010636-R              SOPORTE SIMPLE C/FARO 0600 ROJO    0000020028
00040010636-V              SOPORTE SIMPLE C/FARO 0600 VERDE   0000020028
00040010660                JGO.SOPORTE TANQUE (4 Faros 600)   0000108524
00040010660/0634           JGO.SOPORTE TANQUE (4 Faros 634)   0000116187
00040010750N-A             JGO.FARO TECHO CHICO.AMBAR         0000020253
00040010750N-AZ            JGO. FARO TECHO CHICO AZUL         0000020253
00040010750N-C             JGO.FARO TECHO CHICO.CRISTAL       0000020253
00040010750N-R             JGO.FARO TECHO CHICO.ROJO          0000020253
00040010750N-V             JGO.FARO TECHO CHICO.VERDE         0000020253
00040010800-A              FARO DE TECHO UNIVERSAL            0000013181
00040010800-AZ             FARO DE TECHO UNIVERSAL AZUL       0000013181
00040010800-C              FARO DE TECHO UNIVERSAL CRISTAL    0000013181
00040010800-R              FARO DE TECHO UNIVERSAL ROJO       0000013181
00040010800-V              FARO DE TECHO UNIVERSAL VERDE      0000013181
00040010880N-A             JGO.FARO TECHO GRANDE.AMBAR        0000047740
00040010880N-AZ            JGO FARO TECHO GRANDE AZUL         0000047740
00040010880N-C             JGO.FARO TECHO GRANDE.CRISTAL      0000047740
00040010880N-R             JGO.FARO TECHO GRANDE.ROJO         0000047740
00040010880N-V             JGO.FARO TECHO GRANDE.VERDE        0000047740
00040010900                JGO.FARO TRASERO CON REFLECTOR     0000111604
00040011017S-A             UNIV C/CUERPO PROTECTOR NEGRO.AMBAR0000009800
00040011017S-AZ            UNIV.C/CUERPO PROTECTOR NEGRO AZUL 0000009800
00040011017S-C             UNIV C/CUERPO PROTECTOR NEGRO.CRIST0000009800
00040011017S-R             UNIV C/CUERPO PROTECTOR NEGRO.ROJO 0000009800
00040011017S-V             UNIV C/CUERPO PROTECTOR NEGRO.VERDE0000009800
00040011021-A              PERITA PLASTICO UNIPOLAR FIJO.AMBAR0000009736
00040011021-C              PERITA PLASTICO UNIPOLAR FIJO.AMBAR0000009736
00040011021-R              PERITA PLASTICO FIJO UNIPOLAR.ROJO 0000009736
00040011021-V              PERITA PLASTICO UNIPOLAR FIJO.VERDE0000009736
00040011021FL-A            PERITA PLASTICO UNIP FLEXIBLE.AMBAR0000012788
00040011021FL-AZ           PERITA PLASTICO UNIP FLEXIBLE AZUL 0000012788
00040011021FL-C            PERITA PLASTICO UNIP FLEXIBLE.CRIST0000012788
00040011021FL-R            PERITA PLASTICO UNIP FLEXIBLE.ROJO 0000012788
00040011021FL-V            PERITA PLASTICO UNIP FLEXIBLE.VERDE0000012788
00040011030-A              MINI FARITO RECTANGULAR.AMBAR      0000005676
00040011030-AZ             MINI FARITO RECTANGULAR AZUL       0000005676
00040011030-C              MINI FARITO RECTANGULAR.CRISTAL    0000005676
00040011030-R              MINI FARITO RECTANGULAR.ROJO       0000005676
00040011030-V              MINI FARITO RECTANGULAR.VERDE      0000005676
00040011035-A              UNIVERSAL MULTIPLE.AMBAR           0000008853
00040011035-AZ             UNIVERSAL MULTIPLE AZUL            0000008853
00040011035-C              UNIVERSAL MULTIPLE CRISTAL         0000008853
00040011035-R              UNIVERSAL MULTIPLE.ROJO            0000008853
00040011035-V              UNIVERSAL MULTIPLE.VERDE           0000008853
00040011035FL-A            FARO LATERAL FLEX.SIMPLE AMBAR     0000015141
00040011035FL-AZ           FARO LATERAL FLEX.SIMPLE AZUL      0000015141
00040011035FL-C            FARO LATERAL FLEX. SIMPLE CRISTAL  0000015141
00040011035FL-R            FARO LATERAL FLEX.SIMPLE ROJO      0000015141
00040011035FL-V            FARO LATERAL FLEX. SIMPLE VERDE    0000015141
00040011035FL2             JGO FARO LATERAL FLEX.DOBLE        0000047625
00040011035FL2A            JGO LATERAL FLEX DOBLE. AMBAR-AMBAR0000047625
00040011036-A              FARO UNIVERSAL P/EMBUTIR AMBAR     0000010088
00040011036-R              FARO P/EMBUTIR ROJO                0000010088
00040011036-V              FARO P/EMBUTIR VERDE               0000010088
00040011037-A              FARO REDONDO UNIVERSAL AMBAR       0000011377
00040011037-AZ             FARO REDONDO UNIVERSAL AZUL        0000011377
00040011037-C              FARO REDONDO UNIVERSAL             0000011377
00040011037-R              FARO REDONDO UNIVERSAL ROJO        0000011377
00040011037-V              FARO REDONDO UNIVERSAL VERDE       0000011377
00040011037FL-A            FARO FLEXIBLE REDONDO C/SOPORTE LAT0000014516
00040011037FL-AZ           FARO FLEXIBLE REDONDO C/SOPORTE LAT0000014516
00040011037FL-C            FARO FLEXIBLE REDONDO C/SOPORTE LAT0000014516
00040011037FL-R            FARO FLEXIBLE REDONDO C/SOPORTE LAT0000014516
00040011037FL-V            FARO FLEXIBLE REDONDO C/SOP LATERSA0000014516
00040011037FL2             JGO SOPORTE LAT FLEX DOBLE C/2 FARO0000055065
00040011038-A              FARO REDONDO UNIVERSAL AMBAR       0000011377
00040011038-C              FARO REDONDO UNIVERSAL CRISTAL     0000011377
00040011038-R              FARO RDONDO UNIVERSAL ROJO         0000011377
00040011038-V              UNIVERSAL REDONDO VERDE            0000011377
00040011038FL-A            FARO FLEXIB REDON C/SOPORTE LATERAL0000014516
00040011038FL-R            FARO FLEXIB REDOND C/SOPORTE LATERA0000014516
00040011038FL-V            FARO FLEXIB REDOND C/SOPORTE LATERA0000014516
00040011039-A              LATERAL REDONDO LAMP 5007-AMBAR    0000014477
00040011039-C              LATERAL  REDONDO LAMP 5007 - CRISTA0000014477
00040011039-R              LATERAL REDONDO LAMP 5007 - ROJO   0000014477
00040011050-A              JGO.TRASERO CUADRADO.AMBAR         0000042486
00040011050-AZ             JGO.TRASERO CUADRADO.AZUL          0000042486
00040011050-C              JGO.TRASERO CUADRADO.CRISTAL       0000042486
00040011050-R              JGO.TRASERO CUADRADO.ROJO          0000043851
00040011060-RA             JGO.TRASERO RECTANG.ROJO-AMBAR     0000070422
00040011060-RR             JGO.TRASERO RECTANG.ROJO-ROJO      0000070422
00040011075                JGO.FARO TRASERO C/ILUM PATENTE    0000067574
00040011080                JGO FARO RECT.TRASERO              0000113773
00040011090C               JGO.TRASERO GDE.38,5 X 20,5.CROM   0000154314
00040011090N               JGO.TRASERO GDE.38,5 X 20,5.NEGRO  0000154314
00040011095                JGO.TRASERO GDE.41,8 X 20,2.NEGRO  0000155192
00040011100-A              JGO TRASERO REDONDO GDE 147mm DIAM.0000048924
00040011100-AZ             JGO TRASERO REDONDO GDE 147mm AZUL 0000048924
00040011100-C              JGO.TRASERO REDONDO GDE CRISTAL    0000048924
00040011100-R              JGO TRASERO REDONDO GDE 147mm DIAM 0000051658
00040011100-V              JGO TRASERO REDONDO GDE 147mm DIAM.0000048924
00040011105-A              RED MED 110mm CHATO 2 PORT.AMBAR   0000014284
00040011105-C              RED MED 110mm CHATO 2 PORTALAMP    0000014284
00040011105-R              RED MED 110mm CHATO 2 PORT.ROJO    0000014284
00040011105-V              RED MED 110mm CHATO 2 PORT.VERDE   0000014284
00040011108N               JGO.FARO DOBLE FAZ REDONDO.DELANT  0000049833
00040011109N               JGO.FARO DOBLE FAZ CUADRADO.DELANT 0000075493
00040011110                FARO REDONDO UNIVERSAL TRASERO     0000087508
00040011110V               FARO REDONDO UNIV TRASERO C/VENTANA0000092482
00040011200                JGO.FARO TRASERO GDE.44,5 X 24,0   0000189328
00040011215                JGO.TRASERO MEDIANO.30,5 X 14,0    0000107222
00040011216                JGO.TRASERO MEDIANO.28 X 15        0000118604
00040011216V               JGO.TRASERO MEDIANO C/VENT.28 X 15 0000121965
00040011230                JGO.TRAS RECT ANGOSTO.30 X 7,6     0000061235
00040011250-A              RECT.CHICO 15X8 UNIVERSAL AMBAR    0000018466
00040011250-C              RECT.CHICO 15X8 UNIVERSAL CRISTAL  0000018466
00040011250-R              RECT.CHICO 15X8 UNIVERSAL ROJO     0000018466
00040011250-V              RECT.CHICO 15X8 UNIVERSAL VERDE    0000018466
00040011255-A              UNIVERSAL MULTIPLE,AMBAR           0000011456
00040011255-C              UNIVERSAL MULTIPLE,CRISTAL         0000011456
00040011255-R              UNIVERSAL MULTIPLE.ROJO            0000011456
00040011255-V              UNIVERSAL MULTIPLE.VERDE           0000011456
00040011260                JGO.TRASERO CUADRADO.14,3 X 14,4   0000070823
00040011260V               JGO.TRAS CUADR V/VEN.14,3 X 14,4   0000072673
00040011300                JGO.TRAS T/M BENZ 1517.S/VENT      0000106089
00040011300C/R             JGO. FARO 1300 CON RET.            0000104351
00040011300C/RV            JGO. FARO 1300 CON RET CON VENTANA 0000107705
00040011300V               JGO.TRAS T/M BENZ 1517.C/VENT      0000109445
00040011300VC/R            FARO 1300 C/VENTANA C/RETROCESO    0000107705
00040011325                JGO.TRAS T/M BENZ 608.S/VENT       0000066630
00040011325V               JGO.TRAS T/M BENZ 608.C/VENT       0000069481
00040011350D-SF            TRAS DER M BENZ 1215-S/FICHA       0000078089
00040011350I-SF            TRAS IZQ M BENZ 1215-S/FICHA       0000078089
00040011400A               FARO UNIV.RECTANG.13cm X 11cm.     0000020107
00040011400AZ              FARO UNIV. RECTANG. 13CM X 11CM AZU0000020107
00040011400C               FARO UNIV.RECTANG.13cm X 11cm      0000020107
00040011400R               FARO UNIV.RECTANG.13cm X 11cm      0000020791
00040011400RU              FARO UNIV.RECTANG.13cm X 11cm UNIPO0000020107
00040011400V               FARO UNIV.RECTANG.13cm X 11cm      0000020107
00040011405R-A             FARITO LATERAL UNIV.AMBAR          0000010953
00040011405R-AZ            FARO LATERAL UNIV. AZUL            0000010953
00040011405R-C             FARITO LATERAL UNIV.CRISTAL        0000010953
00040011405R-R             FARITO LATERAL UNIV.ROJO           0000010953
00040011405R-V             FARITO LATERAL UNIV.VERDE          0000010953
00040011450                UNIV. TRASERO CHICO ROJO Y AMBAR   0000027794
00040011500                JGO UNIVERSAL TRASERO S/VENT       0000111114
00040011500C/R             FARO UNIV TRASERO C/RETROCESO      0000118119
00040011500V               JGO UNIVERSAL TRASERO C/VENT       0000114473
00040011500VC/R            FARO UNIV TRASERO C/RETRO C/VENT   0000121475
00040011530                JGO DE FAROS TRASEROS              0000054069
00040011580                JGO FARO UNIVERSAL TRASERO         0000078387
00040011600                JGO FARO TRASERO UNIVERSAL         0000200919
00040011600B               JGO FARO TRASERO BIPOLAR           0000213508
00040011600V               JGO FARO TRASERO UNIV. C/VENTANA   0000222144
00040011600VB              JGO FARO TRAS BIPOLAR C/VENTANA    0000233092
00040011610                JGO FARO TRASERO UNIVERSALES       0000148825
00040011610B               JGO FARO TRASERO BIPOLAR RO-RO-AM  0000164402
00040011610V               JGO FARO TRASERO UNIV. C/VENTANA   0000158645
00040011610VB              JGO FARO TRAS BIPOLAR C/VENTANA    0000176175
00040011620-A              RECTANGULAR TRASERO AMBAR          0000027380
00040011620-C              RECTANGULAR TRASERO CRISTAL        0000027380
00040011620-R              RECTANGULAR TRASERO ROJO           0000027380
00040011620B-R             FARO RECTANG.TRASERO BIPOLAR ROJO  0000033505
00040011620V-A             RECTANGULAR TRASERO C/VENT AMBAR   0000032645
00040011620V-R             RECTANGULAT TRASERO C/VENT.ROJO    0000032645
00040011620VB-R            FARO RECT.TRAS.BIPOLAR ROJO C/VENTA0000038318
00040011700/1              LUZ DE STOP LUNETA C/ADHESIVO      0000040181
00040011700/2              LUZ DE STOP LUNETA PARA ATORNILLAR 0000037624
00040011700/3              LUZ STOP LUNETA P.UP C/ADHESIVO    0000039474
00040011800-A              RED 156mm UNIP S/SOP-AMBAR         0000025982
00040011800-C              RED.C/REFLEC.UNIP.S/SOP, CRISTAL   0000025982
00040011800MT-3            MARCO SOPOR TRAS C/3 FAROS 1800    0000084744
00040011800MT-4            MARCO SOPOR TRAS C/4 FAROS 1800    0000114820
00040011800S-A             RED 156mm UNIP C/SOP-AMBAR         0000029723
00040011800S-C             RED 156mm UNIP C/SOP-CRISTAL       0000029723
00040011800S-R             RED.C/REFLECTOR UNIPOL. C/SOP.ROJO 0000029723
00040011800SB-R            RED 156mm BIPOLAR C/SOP-ROJO       0000032650
00040011810-A              TRASERO RED.MED.s/SOP.UNIP.AMBAR   0000022259
00040011810-C              TRASERO RED.MED.s/SOP.UNIP.CRISTAL 0000022259
00040011810-R              TRASERO RED MED.s/SOP.UNIP.ROJO    0000022259
00040011810B-R             TRASERO RED MED.s/SOP.BIPOL.ROJO   0000025183
00040011810MT-3            MARCO SOPOR TRAS T/RANDON C/3 FAROS0000074169
00040011810MT-4            MARCO SOPORT TRAS T/RANDON C/4 FARO0000098033
00040011810S-A             TRASERO RED MED.c/SOP.UNIP.AMBAR   0000025612
00040011810S-C             TRASERO RED MED.c/SOP.UNIP.CRISTAL 0000025612
00040011810S-R             TRASERO RED MED.c/SOP.UNIP.CRISTAL 0000025612
00040011810SB-R            TRASERO RED MED.c/SOP.BIPOL.ROJO   0000028539
00040011820-A              RED.CHICO UNIPOLAR S/SOP.AMBAR     0000018747
00040011820-R              RED.CHICO UNIPOLAR S/SOP. ROJO     0000018747
00040011820S-A             RED.CHICO UNIP. C/ARO FLEXIBLE AMBA0000021416
00040011820S-C             RED.CHICO UNIP.C/ARO FLEX. CRISTAL 0000021416
00040011820S-R             REDONDO CHICO UNIP C/ARO FLEXI ROJO0000021416
00040011820S-V             RED.CHICO UNIP.C/ARO FLEX. VERDE   0000021416
00040011820SB-R            RED.CHICO BIPOLAR C/ARO FLEX.ROJO  0000024344
00040011830-A              TRAS.REDONDO MEDIANO UNIPOLAR AMBAR0000022578
00040011830-C              TRAS.REDONDO MEDIANO UNIPOLAR CRIST0000022578
00040011830B-R             TRAS.REDONDO MEDIANO BIPOLAR ROJO  0000023256
00040011830MT-3D           MARCO TRASERO 3 FAROS 1830 DERECHO 0000072972
00040011830MT-3I           MARCO TRASERO 3 FAROS 1830 IZQUIER 0000072972
00040011830MT-4D           MARCO TRASERO C/4 1830 DERECHO     0000094072
00040011830MT-4I           MARCO TRASERO C/4 1830 IZQUIERDO   0000094072
00040011840-A              FARO REDONDO CHICO UNIPOLAR AMBAR  0000017497
00040011840-C              FARO REDONDO CHICO UNIPOLAR CRISTAL0000017497
00040011840-R              FARO REDONDO CHICO UNIPOLAR ROJO   0000017497
00040011850-A              REDONDO TRASERO ARO FLEX UNIP AMBA 0000024640
00040011850-C              REDONDO TRASERO ARO FLEX UNIP CRIST0000024640
00040011850-R              REDONDO TRASERO ARO FLEX UNIP ROJO 0000027646
00040011900                JGO FARO TIPO FORD 14000.S/VENT    0000133610
00040011900V               JGO FARO TIPO FORD 14000.C/VENT    0000134942
00040012000                LUZ DE FRENO SUPERIOR C/28 LEDS    0000079066
00040012000D               LUZ DE FRENO 28 LEDS.C/DESTELLADOR30000079265
00040013060-A              FARO DELIMITADOR UNIV 2 RETROREF AM0000015881
00040013060-R              FARO DELIMITADOR UNIV 2 RETROREF RO0000015881
00040014000-A              AMBULANCIA C/LAMPARA-AMBAR         0000046574
00040014000-AZ             AMBULANCIA C/LAMPARA-AZUL          0000046574
00040014000-C              AMBULANCIA C/LAMPARA-CRISTAL       0000046574
00040014000-R              AMBULANCIA C/LAMPARA-ROJO          0000046574
00040014000-V              AMBULANCIA C/LAMPARA-VERDE         0000046574
00040014000STR-AZ          AMBULANCIA STROBOSCOPICO 12V       0000153120
0004001C1800D              CONJ ARMADO 4 F/1800.DERECHO       0000192413
0004001C1800I              CONJ ARMADO 4 F/1800.IZQUIERDO     0000192413
0004001C1810D              CONJ ARMADO 4 F/1810 DER           0000181664
0004001C1810D-3            CONJ ARMADO 3 FAROS 1810 DERECHO   0000136486
0004001C1810D-3SLF         =C1810D-3 S/FAROS LAT S/FICHA CONEX0000136486
0004001C1810I              CONJ ARMADO 4 F/1810 IZQ           0000181664
0004001C1810I-3            CONJ ARMADO 3 FAROS 1810 IZQUIERDO 0000136486
0004001C1810I-3SLF         =C1810I-3 S/FAROS LAT S/FICHA CONEX0000136486
0004001C1811-3-R           CONJ ARMADO 3 FAROS 1810 ROJO UNIP 0000093186
0004001C1811D              CONJ ARMADO 4 FAROS 1810 DERECHO   0000123050
0004001C1811D-3            CONJ ARMADO 3 FAROS 1810 C-R-A DER 0000097471
0004001C1811I              CONJ ARMADO 4 FAROS 1810 IZQUIERDO 0000123050
0004001C1811I-3            CONJ ARMADO 3 FAROS 1810 C-R-A IZQ 0000097471
00040020480P               FARO PLAFOND C/LENTE DE VIDRIO     0000024264
00040020480PLL             PLAFOND DE VIDRIO C/LLAVE          0000028498
00040020500P               FARO PLAFOND C/LENTE DE VIDRIO     0000039485
00040020500PLL             PLAFOND DE VIDRIO C/LLAVE          0000043108
00040020602PM              C/LLAVE LENTE OPALINO(CUERP.MARFIL)0000013515
00040021235PM              RECT.ANGOSTO L/OP(CUER.MARFIL)     0000027498
00040021240PM              RECT ANG CHICO L/OP C/LLAVE C/MAR  0000021863
00040021255PM              FARO PLAF CHICO C/LLAVE INT C/OP   0000013278
00040021270P               RECT.PLAFONIER Xa EMBUTIR C/LLAVE  0000025086
0004002401P                FARO PLAFON INT C/LLAVE.CHICO      0000014694
00040030898/1              REFLECTOR TRASERO UNIVERSAL        0000008988
00040030898/2              REFLECTOR TRASERO UNIVERSAL DOBLE  0000016690
00040030899-A              TRAPEZOIDAL CHICO 42X 60mm AMBAR   0000003282
00040030899-R              TRAPEZOIDAL CHICO 42 X 60mm AMBAR  0000003282
00040030900R               REFLECTOR TRIANGULAR               0000007881
00040030900R1              REFLECTIVO TRIANGULAR C/U          0000013666
00040030900R4              REFLECTOR TRIANGULAR C/4 0900R     0000047638
00040030900RD              DISPLAY C/4 REFLECT 0900R          0000029093
00040031040-A              OVALADO LARGO.AMBAR                0000004438
00040031040-R              OVALADO LARGO.ROJO                 0000004438
00040031040D               DISPLAY C/12 REFLEC. ART. 1040     0000045936
00040031041-A              RECTANGULAR AMBAR                  0000004476
00040031041-R              RECTANGULAR.ROJO                   0000004476
00040031041D               DISPLAY C/12 REFLEC. ART .1040     0000046191
00040031042-A              REDONDO GRANDE.AMBAR               0000004767
00040031042-R              REDONDO GRANDE.ROJO                0000004767
00040031042D               DISPLAY C/12 REFLEC. ART. 1042     0000047722
00040031043-A              REDONDO CHICO.AMBAR                0000003956
00040031043-R              REDONDO CHICO.ROJO                 0000003956
00040031043D               DISPLAY C/20 REFLEC. ART. 1043     0000061758
00040031044-A              OVALADO CORTO.AMBAR                0000004469
00040031044-R              OVALADO CORTO.ROJO                 0000004469
00040031044D               DISPLAY C/15 REFLEC. ART. 1044     0000039518
00040031045-A              RECTANGULAR 165 X 20 mm.AMBAR      0000003961
00040031045-R              RECTANGULAR 165 X 20 mm.ROJO       0000003961
00040031045D               DISPLAY C/12 REFLEC. ART. 1045     0000028485
00040031046-A              RECTANGULAR 133 X 24 mm.AMBAR      0000003601
00040031046-R              RECTANGULAR 133 X 24 mm.ROJO       0000003601
00040031046D               DISPLAY C/12 REFLEC. ART. 1046     0000025974
00040031047-A              RECTANGULAR 220 X 23 mm.AMBAR      0000005081
00040031047-R              RECTANGULAR 220 X 23 mm.ROJO       0000005081
00040031047D               DISPLAY C/12 REFLEC. ART. 1047     0000050198
00040031048-A              RECTANGULAR CHICO 60 X 72mm AMBAR  0000004088
00040031048-R              RECTANGULAR CHICO 60 X 72mm ROJO   0000004088
00040031049D               DISPLAY C/10 REFLEC VARIOS (1 C/U) 0000028215
00040031400R-A             REFLECTOR RECT.GRANDE AMBAR        0000008251
00040031400R-R             REFLECTOR RECT.GRANDE ROJO         0000008251
00040040480PLLE            PLAFON 10 LEDS CON LLAVE           0000065102
00040040603E               ILUMINA PATENTE 6 LED              0000034745
00040040607E-24R           FARITO UNIV.ELECT. 24V ROJO        0000045312
00040040607E-A             FARITO UNIV.ELECT.12V.AMBAR.       0000113071
00040040607E-R             FARITO UNIV.ELECT.12V ROJO         0000113071
00040040608E               FARO ILUMINA PATENTE               0000042595
00040040612E-R             SOPORTE METALICO 3-1035E ROJO      0000109274
00040040634E-A             FARO UNIV CUADRADO ELECTR AMBAR    0000028516
00040040634E-AB            UNIVERSAL 4 LEDS BIVOLT AMBAR      0000028516
00040040634E-C             FARO UNIV CUADRADO ELECTR CRISTAL  0000028516
00040040634E-CB            UNIVERSAL 4 LEDS BIVOLT CRISTAL    0000028516
00040040634E-R             FARO UNIV CUADRADO ELECTR ROJO     0000028516
00040040634E-RB            UNIVERSAL 4 LEDS BIVOLT ROJO       0000028516
00040040660/1035E          SOPORTE TANQUE C/4 FAROS 1035 ELECT0000234950
00040041030E-24A           MINI FARO AMBAR 24V                0000047674
00040041030E-24R           MINI FARO ROJO 24V                 0000047674
00040041030E-A             MINI FARO AMBAR 12/24              0000022746
00040041030E-RB            MINI FARO ROJO-BIPOLAR 12/24       0000022746
00040041033E-A             OVAL CHICO 3 LED BIVOLTAJE AMBAR   0000025007
00040041033E-C             OVAL CHICO 3 LED BIVOLTAJE CRISTAL 0000025007
00040041033E-R             OVAL CHICO 3 LED BIVOLTAJE ROJO    0000025007
00040041033E-V             OVAL CHICO 3 LED BIVOLTAJE VERDE   0000026163
00040041033EFL-A           SOP.FLEX.SIMPLE AMBAR              0000028054
00040041033EFL-R           SOP.FLEX.SIMPLE ROJO               0000028054
00040041033EFL2            SOPORTE FLEX DOBLE BIVOLT ROJO/AMB 0000101450
00040041034E-AB            UNIV OVAL BIPOLAR/BIVOLTAJ DELIM LA0000047674
00040041034E-AU            UNIV.OVAL ELECTR.12 LEDS AMBAR     0000047674
00040041034E-RB            UNIV.OVAL ELECTR.12 LEDS ROJO      0000047674
00040041035E-A             OVALADO ELECTR BIVOLTAJE-AMBAR     0000025502
00040041035E-C             OVALADO ELECTR BIVOLTAJE-CRISTAL   0000025502
00040041035E-R             OVALADO ELECTR BIVOLTAJE-ROJO      0000025502
00040041035E-V             OVALADO ELECTRONICO BIVOLTAJE-VERDE0000028575
00040041350ED/12V          TRASERO 12V T.MERCEDES C/FICHA DERE0000240827
00040041350ED/24V          TRASERO 24V TIPO MERCEDES C/FICHA D0000245548
00040041350EI/12V          TRASERO 12V T.MERCEDES C/FICHA IZQ 0000240827
00040041350EI/24V          TRASERO 24V TIPO MERCEDES C/FICHA I0000245548
00040041530EB-A            RECTANG ELECTR DESTELLANTE BALIZA  0000086768
00040041580E               JGO FAROS RECT TRAS C/M ATRAS      0000261922
00040041600E               JGO-4 FAROS-CRI-ROJ-ROJ-AMB.BIPOLAR0000792641
00040041610E               JGO-3 FAROS-CRI-ROJ-AMB.BIPOLAR    0000579314
00040041620E-AU            RECTAG TRAS 18 LED BIVOLTAJE AMBAR 0000104573
00040041620E-CU            RECTANG TRAS 18 LED BIVOLTAJE CRIST0000088766
00040041620E-RB            RECTAG TRAS 18 LED BIVOLTAJE ROJO  0000108001
00040043000E-AU            RED 4" LEDS-UNIP-12/24-AMBAR       0000154684
00040043000E-CU            RED 4" LEDS-UNIP-12/24-CRISTAL     0000129823
00040043000E-RB            RED 4" LEDS-BIPOL-12/24-ROJO       0000158214
00040043000E-VU            RED 4" LEDS-12V-VERDE              0000159500
00040043000EMT-3           SOPORTE 3-3000E CRA                0000428292
00040043000EMT-3RB         SOPORTE 3-3000E RRR BIPOLAR        0000470106
00040043000EMT-4           SOPORTE 4-3000E CRRA               0000577428
00040043010E-AB            OVAL 6" LEDS BIVOLTAJE BIPOLAR AMBA0000125760
00040043010E-AU            OVAL 6" 25 LEDS UNIPOLAR AMBAR     0000120572
00040043010E-RB            OVAL 6" 25 LEDS BIVOLT. ROJO       0000124076
00040043020E-A             OVAL SECUENCIAL 12-24V-AMBAR       0000137497
00040043030E-A             RED 2" LEDS-UNIP-12/24-AMBAR       0000045362
00040043030E-AZ            RED 2" LEDS-UNIP-12/24-AZUL        0000048447
00040043030E-C             RED 2" LEDS-UNIP-12/24-CRISTAL     0000043014
00040043030E-R             RED 2" LEDS-UNIP-12/24-ROJO        0000045362
00040043030E-V             RED 2" LEDS-UNIP-12/24-VERDE       0000048447
00040043030EFL-A           SOP FLEX SIMPLE BIVOL AMBAR        0000049812
00040043030EFL-V           SOP FLEX SIMPLE BIVOLT VERDE       0000052898
00040043040E-AB            RED 2,5" LEDS-BIPOL-12/24-AMBAR    0000046258
00040043040E-RB            RED 2,5" LEDS-BIPOL-12/24-ROJO     0000046258
00040043050E-A             FARO ELECT 4 LEDS BIVOLTAJE AMBAR  0000039811
00040043050E-C             FARO ELECTR 4 LEDS BIVOLTAJE CRISTA0000037897
00040043050E-R             FARO ELECTR 4 LEDS BIVOLTAJE ROJO  0000039811
00040043060E-RR            FARO DELIM UNIV 4 LEDS BIVOLT ROJO 0000038887
00040043100E-AU            REDONDO ELECT. 20 LED BIVOLT. AMBAR0000124175
00040043100E-CU            REDONDO ELECT. 20 LED BIVOLT CRISTA0000109269
00040043100E-RB            REDONDO ELECT. 20 LED BIVOLT ROJO  0000127631
00040043200E-AU            REDONDO 20 LED SMD BIVOL.UNIP. AMBA0000106122
00040043200E-CU            REDONDO 20 LED SMD BIVOL.UNIP.CRIST0000094345
00040043200E-RB            REDONDO 20 LED SMD BIVOLT.BIPOL.ROJ0000111178
0004004401PE               PLAFON ELECTRONICO C/LLAVE         0000028894
00040046000E-A             BALIZA ELECT.12/24V C/TORNI.AMBAR  0000172643
00040046000E-R             BALIZA ELECT.12/24V C/TORNI.ROJO   0000172643
00040046100E-A             BALIZA ELEC 6 LED C/SEC DESTELLO AM0000081095
00040046100E-AZ            BALIZA ELEC 6 LED C/SEC DESTELLO AZ0000078847
00040046100E-C             BALIZA ELEC 6 LED C/SEC DESTELLO CR0000083519
00040046100E-R             BALIZA ELEC 6 LED C/SEC DESTELLO RO0000081095
00040046100E-V             BALIZA ELEC 6 LED C/SEC DESTELLO VE0000078847
00040046100ESD-A           BALIZA ELEC 6 LED S/SEC DESTELLO AM0000081095
00040046100ESD-AZ          BALIZA ELEC 6 LED S/SEC DESTELLO AZ0000078847
00040046100ESD-C           BALIZA ELEC 6 LED S/SEC DESTELLO CR0000083519
00040046100ESD-R           BALIZA ELEC 6 LED S/SEC DESTELLO RO0000081095
00040046100ESD-V           BALIZA ELEC 6 LED S/SEC DESTELLO VE0000078847
0004004C3000E-3-RB         CONJ ARMADO 3-3000E RRR BIPOLAR    0000511275
0004004C3000E/1810D        CONJ ARMADO C/2 3000E-R 2 1810 DER 0000412880
0004004C3000E/1810I        CONJ ARMADO C/2 3000E-R 2 1810 IZQ 0000412880
0004004C3000ED             CONJ ARMADO 4-3000E CRRA.DER       0000640993
0004004C3000ED-3           CONJ ARMADO 3-3000E CRA.DER        0000478418
0004004C3000ED-3-RRA       CONJ ARMADO 3-3000E RRA.DER        0000518492
0004004C3000EI             CONJ ARMADO 4-3000E CRRA.IZQ       0000640993
0004004C3000EI-3           COMJ ARMADO 3-3000E CRA.IZQ        0000478418
0004004C3000EI-3-RRA       CONJ ARMADO 3-3000E RRA.IZQ        0000518355
0004004KIT1600E-AU         KIT REPUES/CONVER UNIPO/BIVOL AMBAR0000101340
0004004KIT1600E-CU         KIT REPUES/CONVER UNIP/BIVOL CRISTA0000085530
0004004KIT1600E-RB         KIT REPUES/CONVER BIPOL/BIVOL ROJO 0000107439
00040050401L-A             LENTE PARA FARO 401 AMBAR          0000002728
00040050401L-AZ            LENTE PARA FARO 401 AZUL           0000002728
00040050401L-C             LENTE PARA FARO 401 CRISTAL        0000002728
00040050401L-O             LENTE PARA FARO 401 OPALINO        0000002728
00040050401L-R             LENTE PARA FARO 401 ROJO           0000002728
00040050401L-V             PARA FARO 0401 VERDE               0000002728
00040050480L               LENTE P/PLAFOND 480                0000011300
00040050500L               LENTE P/PLAFOND 500                0000015720
00040050506L               P/FARO 0506.(ROJO-AMBAR)           0000014222
00040050570L-A             PARA FARO 0570.AMBAR               0000004423
00040050570L-AZ            PARA FARO 0570.AZUL                0000004423
00040050570L-C             PARA FARO 0570.CRISTAL             0000004423
00040050570L-R             PARA FARO 0570.ROJO                0000004423
00040050570L-V             PARA FARO 0570.VERDE               0000004423
00040050580L-A             LENTE P/FARO 0580  AMBAR           0000003491
00040050580L-AZ            LENTE P/FARO 0580 AZUL             0000003491
00040050580L-C             LENTE P/FRO 0580 CRISTAL           0000003491
00040050580L-R             LENTE PARA FARO 0580  ROJO         0000003491
00040050580L-V             LENTE P/FARO 0580 VERDE            0000003491
00040050600/0602L-A        PARA FARO 0600 Y 0602.AMBAR        0000002570
00040050600/0602L-AZ       PARA FARO 0600 Y 0602. AZUL        0000002570
00040050600/0602L-C        PARA FARO 0600 Y 0602.CRISTAL      0000002570
00040050600/0602L-R        PARA FARO 0600 Y 0602.ROJO         0000002570
00040050600/0602L-V        PARA FARO 0600 Y 0602.VERDE        0000002570
00040050604L-C             PARA FARO 0604 CRISTAL             0000001268
00040050605L-C             ILUMINA PATENTE GRANDE             0000002999
00040050607L-A             PARA FARO 0607.AMBAR               0000002600
00040050607L-AZ            PARA FARO 0607 AZUL                0000002600
00040050607L-C             PARA FARO 0607.CRISTAL             0000002600
00040050607L-R             PARA FARO 0607.ROJO                0000002600
00040050607L-V             PARA FARO 0607.VERDE               0000002600
00040050634L-A             PARA FARO 0634 Y 0634S.AMBAR       0000002317
00040050634L-AZ            PARA FARO 0634 Y 0634S.AZUL        0000002317
00040050634L-C             PARA FARO 0634 Y 0634S.CRISTAL     0000002317
00040050634L-R             PARA FARO 0634 Y 0634S.ROJO        0000002317
00040050634L-V             PARA FARO 0634 Y 0634S.VERDE       0000002317
00040050750L-A             PARA FARO 0750 AMBAR               0000002925
00040050750L-AZ            LENTE PARA FARO 750 AZUL           0000002925
00040050750L-C             PARA FARO 0750 CRISTAL             0000002925
00040050750L-R             PARA FARO 0750 ROJO                0000002925
00040050750L-V             PARA FARO 0750 VERDE               0000002925
00040050800L-A             LENTE PARA FARO 0800 AMBAR         0000003703
00040050800L-AZ            LENTE P/FARO 0800 AZUL             0000003703
00040050800L-C             LENTE P/FARO 0800 CRISTAL          0000003703
00040050800L-R             LENTE P/FARO 0800 ROJO             0000003703
00040050800L-V             LENTE P/FARO 0800 VERDE            0000003703
00040050880L-A             PARA FARO 0880.AMBAR               0000003667
00040050880L-AZ            PARA FARO 0880.AZUL                0000003667
00040050880L-C             PARA FARO 0880.CRISTAL             0000003667
00040050880L-R             PARA FARO 0880.ROJO                0000003667
00040050880L-V             PARA FARO 0880.VERDE               0000003667
00040050900L-A             PARA FARO 0900.AMBAR               0000004308
00040050900L-R             PARA FARO 0900.ROJO                0000004308
00040051017L-A             PARA FARO 1017 Y 1017S.AMBAR       0000001210
00040051017L-AZ            P/FARO 1017 Y 1017S. AZUL          0000001210
00040051017L-C             PARA FARO 1017 Y 1017S.CRISTAL     0000001210
00040051017L-R             PARA FARO 1017 Y 1017S.ROJO        0000001210
00040051017L-V             PARA FARO 1017 Y 1017S.VERDE       0000001210
00040051021L-A             PARA FARO 1021 Y 1021FL.AMBAR      0000002093
00040051021L-AZ            PARA FARO 1021 Y 1021FL AZUL       0000002093
00040051021L-C             PARA FARO 1021 Y 1021FL.CRISTAL    0000002093
00040051021L-R             PARA FARO 1021 Y 1021FL.ROJO       0000002093
00040051021L-V             PARA FARO 1021 Y 1021FL.VERDE      0000002093
00040051030L-A             PARA FARO 1030.AMBAR               0000000809
00040051030L-AZ            LENTE PARA FARO 1030-AZ BAIML.     0000000809
00040051030L-C             PARA FARO 1030.CRISTAL             0000000809
00040051030L-R             PARA FARO 1030.ROJO                0000000809
00040051030L-V             PARA FARO 1030.VERDE               0000000809
00040051035EL-A            LENTE P/FARO ELECTRONICO 1035 AMBAR0000002322
00040051035EL-C            LENTE P/FARO ELECTRONICO 1035 CRIST0000002322
00040051035EL-R            LENTE P/FARO ELECTRONICO 1035 ROJO 0000002322
00040051035EL-V            LENTE P/FARO ELECTRONICO 1035 VERDE0000002322
00040051035L-A             LENTE P/FARO 1035                  0000002322
00040051035L-AZ            LENTE P/FARO 1035                  0000002322
00040051035L-C             LENTE PARA FARTO 1035 CRISTAL      0000002322
00040051035L-R             LENTE P/FARO 1035                  0000002322
00040051035L-V             LENTE P/FARO 1035                  0000002322
00040051037L-A             P/FARO 1037/1038/1039 AMBAR        0000002733
00040051037L-AZ            P/FARO 1037/1038/1039 AZUL         0000002733
00040051037L-C             P/FARO 1037/1038/1039 CRISTAL      0000002733
00040051037L-R             P/FARO 1037/1038/1039 ROJO         0000002733
00040051037L-V             P/FARO 1037/1038/1039 VERDE        0000002733
00040051038/39L-A          PARA FARO 1038/39 AMBAR            0000002733
00040051038/39L-C          PARA FARO 1038/39 CRISTAL          0000002733
00040051038/39L-R          PARA FARO 1038/39 ROJO             0000002733
00040051038/39L-V          PARA FARO 1038/39 VERDE            0000002733
00040051050/60L-A          PARA FARO 1050 Y 1060.AMBAR        0000004203
00040051050/60L-C          PARA FARO 1050 Y 1060.CRISTAL      0000004203
00040051050/60L-O          PARA FARO 1050 Y 1060.OPALINO      0000004203
00040051050/60L-R          PARA FARO 1050 Y 1060.ROJO         0000004203
00040051050/60L-V          PARA FARO 1050 Y 1060 VERDE        0000004203
00040051075L               COLOR ROJO PARA FARO 1075          0000010011
00040051080CH-A            LENTE CHICO P/FARO 1080            0000008187
00040051080CH-C            LENTE CHICO P/FARO 1080            0000008187
00040051080CH-R            LENTE CHICO P/FARO 1080            0000008187
00040051080CH-V            LENTE CHICO P/FARO 1080            0000008187
00040051080G-A             LENTE GDE P/FARO 1080              0000011578
00040051080G-C             LENTE GDE P/FARO 1080              0000011578
00040051080G-R             LENTE GDE P/FARO 1080              0000011578
00040051080G-V             LENTE GDE P/FARO 1080              0000011578
00040051090L-A             LAT RECTANGULAR P/FARO 1090.AMBAR  0000007074
00040051090L-C             LENTE GRANDE P/FARO 1090.CRISTAL   0000007074
00040051090L-R             LAT RECTANGULAR P/FARO 1090.ROJO   0000007074
00040051095CH-C            LENTE CRISTAL CHICO P/FARO 1095    0000006699
00040051095CH-R            LENTE ROJO CHICO P/FARO 1095.ROJO  0000006699
00040051095G-R             LENTE ROJO GRANDE P/FARO 1095      0000019775
00040051095ME-A            LENTE AMBAR MEDIANO P/FARO 1095    0000008503
00040051095ME-R            LENTE ROJO MEDIANO P/FARO 1095     0000008503
00040051100L-A             PARA FARO 1100.AMBAR               0000005464
00040051100L-AZ            PARA FARO 1100 AZUL                0000005464
00040051100L-C             PARA FARO 1100.CRISTAL             0000005464
00040051100L-R             PARA FARO 1100.ROJO                0000005464
00040051100L-V             PARA FARO 1100.VERDE               0000005464
00040051105/08L-A          PARA FARO 1105 Y 1108.AMBAR        0000003238
00040051105/08L-C          PARA FARO 1105 Y 1108.CRISTAL      0000003238
00040051105/08L-R          PARA FARO 1105 Y 1108.ROJO         0000003238
00040051105/08L-V          PARA FARO 1105 Y 1108.VERDE        0000003238
00040051110L               LENTE PARA FARO 1110               0000016289
00040051110LC/R            LENTE PARA FARO 1110 C/RETROCESO   0000016289
0004005113L                COMPLETO P/FARO T/SCANIA           0000028220
0004005113LV               COMPLETO P/FARO T/SCANIA C/VENTANA 0000031201
00040051200CH-A            PARA FARO 1200/15/30/50.AMBAR      0000003871
00040051200CH-AZ           PARA FARO 1200/15/30/50 AZUL       0000003871
00040051200CH-C            PARA FARO 1200/15/30/50.CRISTAL    0000003871
00040051200CH-O            PARA FARO 1200 15/30/50 OPALINO    0000003871
00040051200CH-R            PARA FARO 1200/15/30/50.ROJO       0000003871
00040051200CH-V            PARA FARO 1200/15/30/50.VERDE      0000003871
00040051200G-R             PARA FARO 1200.ROJO                0000029930
00040051200ME-A            PARA FARO 1200/15.AMBAR            0000007863
00040051200ME-C            PARA FARO 1200/15.CRISTAL          0000007863
00040051200ME-O            PARA FARO 1200/15/30/50 OPALINO    0000007863
00040051200ME-R            PARA FARO 1200/15.ROJO             0000007863
00040051200ME-V            PARA FARO 1200/15.VERDE            0000007863
00040051255L-A             PARA FARO 1255.AMBAR               0000002685
00040051255L-C             PARA FARO 1255.CRISTAL             0000002685
00040051255L-O             PARA FARO 1255 OPALINO             0000002685
00040051255L-R             PARA FARO 1255.ROJO                0000002685
00040051255L-V             PARA FARO 1255.VERDE               0000002685
00040051270L               LENTE FARO 1270                    0000003943
00040051300L               PLASTICO DEL FARO 1300             0000019214
00040051300LC/R            LENTE PARA FARO 1300 CON RET.      0000019214
00040051325L               PLASTICO DEL FARO 1325             0000007967
00040051400L-A             LENTE PARA FARO 1400 AMBAR         0000004839
00040051400L-AZ            LENTE PARA FARO 1400 AZUL          0000004839
00040051400L-C             LENTE PARA FARO 1400 CRISTAL       0000004839
00040051400L-R             LENTE PARA FARO 1400 ROJO          0000004839
00040051400L-V             LENTE PARA FARO 1400 VERDE         0000004839
00040051405L-A             LENTE FARO 1405 AMBAR              0000004555
00040051405L-AZ            LENTE FARO 1405 AZUL               0000004555
00040051405L-C             LENTE FARO 1405 CRISTAL            0000004555
00040051405L-R             LENTE FARO 1405 ROJO               0000004555
00040051405L-V             LENTE FARO 1405 VERDE              0000004555
00040051450L               PARA FARO 1450                     0000011928
00040051500L               LENTE PARA FARO 1500/1500V         0000032681
00040051500LC/R            LENTE P/FARO 1500 C/RET.           0000032681
00040051530L               LENTE FARO                         0000009736
00040051530LC/A            P/FARO 1530 AMBAR-CRISTAL          0000009736
00040051530LC/R            LENTE P/FARO 1530 C/RET.           0000009736
00040051580L               LENTE DEL FARO 1580                0000016272
00040051600L-A             LENTE DEL FARO 1600 AMBAR          0000006673
00040051600L-C             LENTE DEL FARO 1600 CRISTAL        0000006673
00040051600L-R             LENTE DEL FARO 1600 ROJO           0000006673
00040051600L-V             LENTE P/FARO 1600 VERDE            0000006673
00040051800L-A             Unidad sellada CUERPO/LENTE ambar  0000018326
00040051800L-C             UNIDAD SELLADA CUERPO LENTE CRISTAL0000018326
00040051800L-R             Unidad sellada CUERPO/LENTE ROJO   0000018326
00040051800L-V             Unidad sellada CUERPO/LENTE VERDE  0000018326
00040051810L-A             Unidad sellada Cuerpo/Lente xa 18100000013079
00040051810L-C             LENTE P/FARO 1810 CRISTAL          0000013079
00040051810L-R             Unid.sellada Cuerpo/Lente xa 1810 R0000013079
00040051820L-A             LENTE PARA FARO 1820 AMBAR         0000002925
00040051820L-C             LENTE PARA FARO 1820 CRISTAL       0000002925
00040051820L-R             LENTE PARA FARO 1820 ROJO          0000002925
00040051820L-V             LENTE PARA FARO 1820 VERDE         0000002925
00040051830L-A             LENTE FARO 1830 AMBAR              0000006051
00040051830L-C             LENTE PARA FARO 1830 CRISTAL       0000006051
00040051830L-R             LENTE FARO 1830 ROJO               0000006051
00040051840L-A             LENTE PARA FARO 1840 AMBAR         0000004201
00040051840L-R             LENTE PARA FARO 1840 ROJO          0000004201
00040051900L               PARA FARO 1900                     0000028156
00040054000L-A              LENTE FARO AMBULANCIA AMBAR       0000014919
00040054000L-AZ            LENTE FARO AMBULANCIA AZUL         0000014919
00040054000L-C             LENTE FARO AMBULANCIA CRISTAL      0000014919
00040054000L-R             LENTE FARO AMBULANCIA ROJO         0000014919
00040054000L-V             LENTE FARO AMBULANCIA VERDE        0000014919
00040064000B               BURLETE DE GOMA P/LENTE 4000       0000001952
0004006R 001               CHICOTE UNIPOLAR                   0000001940
0004006R 002               CHICOTE BIPOLAR                    0000003029
0004006R 003               PORTAFOCO                          0000003943
0004006R 004               PORTAFOCO CON CHICOTE BIPOLAR      0000005035
0004006R 007               PORTAFOCO BIPOLAR COMPLETO S.1600  0000008932
0004006R 007D              PORTALAMP.FARO 1600 DERECHO        0000008932
0004006R 007I              PORTALAMP.FARO 1600 IZQ.           0000008932
0004006R 010               PORTAFOCO UNIPOLAR SERIE 1800      0000006058
0004006R 011               PORTAFOCO BIPOLAR SERIE 1800       0000007332
0004006R 012               ARO GOMA SOPORTE FARO 1800         0000006035
0004006R 013               ARO GOMA SOPORTE FARO 1810         0000005418
0004006R 014               ARO SOPORTE FLEXIBLE ART. 1820     0000004321
0004006R 015               CHICOTE UNIPOL COMPL SERIE 1800    0000009016
0004006R 016               CHICOTE BIPOLAR COMPL SERIE 1800   0000012306
0004006R 017-2             PORTALAMP CHICO 2 CABLES P/0634    0000002537
0004006R 017-3             PORTALAMP CHICO 2 CABLES P/1035/4010000002537
0004006R 018               PORTAL.FARO 1035FL LAMP 2825 TODOS 0000004601
0004006R 022               ARO REDONDO ENVOLVENTE P/3000E     0000008340
0004006R 025-1             CONECTOR ELECTR.BIPOLAR C/3 CABLES 0000007952
0004007R 028-A             PLAQ ELECT PARA FARO 1035E AMBAR   0000022496
0004007R 028-C             PLAQ ELECT PARA FARO 1035E CRISTAL 0000022496
0004007R 028-R             PLAQ ELECT PARA FARO 1035E ROJA    0000022496
0004007R 028-V             PLAQ ELECT PARA FARO 1035E VERDE   0000025566
0004007R 029-A             PLAQ ELECT PARA FARO 1033E AMBAR   0000021947
0004007R 029-C             PLAQ ELECT PARA FARO 1033E CRISTAL 0000021947
0004007R 029-R             PLAQ ELECT PARA FARO 1033E ROJO    0000021947
0004007R 029-V             PLAQ ELECTR PARA FARO 1033E VERDE  0000023154
00050013M01                BANDA PERIM BLANCA 50mm X METRO    0000039256
00050013M02                BANDA PERIM AMARILLA 50mm X METRO  0000039256
00050013M03                BANDA PERIM ROJA 75mm X METRO      0000058790
00050013M04                BANDA CEBRADA 7,5cm X 50cm C/U     0000029395
00050013M05                CIRCULO VEL MAX 80 C/U             0000025325
00050013M06                CIRCULO VEL MAX 90 C/U             0000025325
00050013M07                CIRCULO VEL MAX 110 C/U            0000025325
00050013M08                BANDA PERIM BCA-ROJA 50mm x METRO  0000058790
00050013M09                PANEL NARANJA PRODUCTO NO CODIFICAD0000074840
00050013M10                CIRCULO VEL MAX 100 C/U            0000025325
00060013M01                BANDA PERIM BLANCA 50mm X METRO    0000039256
00060013M02                BANDA PERIM AMARILLA 50mm X METRO  0000039256
00060013M03                BANDA PERIM ROJA 75mm X METRO      0000058790
00060013M04                BANDA CEBRADA 7,5cm X 50cm C/U     0000029395
00060013M05                CIRCULO VEL MAX 80 C/U             0000025325
00060013M06                CIRCULO VEL MAX 90 C/U             0000025325
00060013M07                CIRCULO VEL MAX 110 C/U            0000025325
00060013M08                BANDA PERIM BCA-ROJA 50mm x METRO  0000058790
00060013M09                PANEL NARANJA PRODUCTO NO CODIFICAD0000074840
00060013M10                CIRCULO VEL MAX 100 C/U            0000025325
000700118007               CHEVETTE 1.4/1.6 BRASIL.SELL       0000061260
000700118010               MONZA / KADETT                     0000061260
0007001733                 400-CHEVY-OPEL K180-PICK-UP        0000056988
0007001810                 PICK-UP C10                        0000056988
000700218027               2CV                                0000046496
000700218028               3CV-MEHARI-AMI 8-IES               0000046496
000700319021               MAXION MB SPRINTER-L/ROVER-C/CEB   0000076803
000700319022               MOTORES MAXION S/CEB.MANUAL        0000073712
000700319025               MWM SPRINT.SILVERADO-F100-99>      0000063173
000700319026               MWM SPRINT.SILVERADO 98-99         0000063173
000700319040               CUMMINS ENTRA 1/4 Y SALE M14 X 1.5 0000075351
000700319041               CUMMINS ENTRADA Y SALIDA M14 X 1.5 0000075351
00070031962/5              BCD-DUCATO,DAILY.2.5 (ORIG)        0000087140
0007003620                 MWM 229.F100/1000/4000.92-96       0000078503
0007003630                 MWM 410 MA-T-TCA-410T              0000078503
0007003750                 PERK 6.305/357/358/340/288         0000075491
0007003751                 PERK 4.203                         0000075493
0007003752                 PERK 6.354                         0000075493
0007003753                 PERK 6.354 FASE 4.6 CIL.4 AGUJEROS 0000075493
0007003754                 PERK 3.152 C/VASO                  0000088745
0007003755                 PERK 4.236.CHEVR D20/40.4 AGUJEROS 0000072278
0007003757                 PERK 4-203/212/248 4 AGUJEROS      0000081287
0007003758                 PERK 4-236/238/248/236A/MF292 4AGUJ0000081287
000700418078               VW-FORD.1.8                        0000055303
000700418085               VW-FORD 83-91 MOT CHT              0000055303
000700418090               VW-FORD.MOTOR AUDI 1.6             0000055303
000700418093               VW-FORD.MOTOR AUDI 1.8/2.0         0000055303
000700418096               KOMBI - FUSCA                      0000057427
0007004642                 VALIANT-POLARA-PICK-UP D100        0000056812
0007004735                 VW-DODGE 1500/1800                 0000057915
000700518012               147-UNO-PREMIO.BRASIL              0000056507
000700518084               FIAT REGATTA 100S TODOS            0000053452
000700518092               LADA 1200/1400.NIVA.LAIKA          0000055710
000700518095               FIAT LADA (URSS) SAMARA 1300 S     0000055710
000700519020               TEMPRA-CROMA-REGATTA 2000          0000074427
0007005637                 600E,R-750/850                     0000051204
0007005638                 FIAT 1500/1600                     0000051204
0007005640                 FIAT 128                           0000051204
0007005730                 FIAT 125                           0000051204
0007005744                 128-147-DUNA-UNO.1.1/1.3           0000051204
0007005747                 FIAT 133-600S                      0000051204
0007005766                 REGATTA 85                         0000051204
0007005784                 RAGATTA 100S                       0000051204
0007005786                 147-DUNA-UNO-REG.M/TIPO 1.4/1.6    0000051204
000700618045               TAUNUS HASTA 77                    0000059457
000700618060               FORD TAUNUS 1978 -> 1980           0000059457
000700618079               SIERRA 1.6 GL                      0000061515
000700618080               SIERRA GHIA-XR4.2.3                0000061515
000700618081               FALCON-F100/150.6 CIL.86-88        0000061515
000700618091               SIERRA 2.3/2 CANOS                 0000061515
000700618098               F100/150 6 CIL 89> (3 CANOS)       0000061515
0007006645                 FORD TAUNUS ->1977                 0000057453
0007006646                 FALCON-F100/150 6 CIL.>80          0000057453
0007006741                 F100/350/600.V8                    0000099519
0007006760                 TAUNUS 78-80                       0000057453
0007006763                 TAUNUS 81-83.FALCON 4 CILINDROS    0000057453
0007006768                 FALCON-F100/150.6 CIL.81-86        0000057453
00070071706/5              BCD-INDENOR                        0000044802
0007007440                 INDENOR                            0000045809
000700818087               205-309-405 (XU)>ABR 92            0000054414
000700818088               205-309-405 (XU) MAY 92>           0000054414
0007008625                 403-404                            0000047035
0007008626                 504 1800cc                         0000047035
0007008762                 PEUGEOT 504 - 2000cc -             0000047035
0007008764                 505 >86                            0000047035
0007008783                 505 86-91 - 504 91>                0000047035
00070091778/5              BCD-DACIA                          0000045285
000700918065               R18/TRAFIC/FUEGO/21.2000cc         0000054326
000700918082               R9/19 1600cc.P/LARGA               0000054310
000700918089               R19 RT-CHAMADE.1600/1700cc         0000053542
00070091889/5              BCD-R4/6.84> P/LARGA               0000052492
00070091951/7              BCD-R18/FUEGO/TRAFIC/21.2000cc     0000052492
0007009600                 R12/18 1.4-82-83.P/CORTA           0000046190
0007009601                 R4/6 84>.P/LARGA                   0000046190
0007009602                 R12/18 1.4 82/85 P/LARGA           0000046190
0007009622                 DAUPHINE-GORDINI-4L.P/CORTA        0000046190
0007009623                 R6/4S.P/CORTA                      0000046190
0007009624                 R12 >80.P/CORTA                    0000046190
0007009629                 TORNADO 4 BANCADAS                 0000059527
0007009634                 JEEP-ESTANCIERA.CONTIN 4/6 CIL     0000092875
0007009739                 IKA TORINO 7 BANCADAS              0000060681
0007009756                 R12 1.4 CON A/AC.P/CORTA           0000046190
0007009771                 R18/TRAFIC 1.4.C/RET.P/CORTA       0000046190
0007009772                 R12 81-84 C/RET.P/CORTA            0000046190
0007009773                 R9/12/18 87>.6.35mm.P/LARGA        0000046190
0007009774                 R12/TRAFIC 1.4.>86.P/LARGA         0000046190
0007009782                 R9/11/12/18/19.1.4.87>.8mm.P/LARGA 0000046190
0007009789                 R11 C/RET.6.35mm.P/LARGA           0000046190
0007009794                 R-12 TRAFIC 1600cc 92-> P.LARGA    0000046190
00080013016                UNIVERSAL NAFTA PICO FINO-GRUESO   0000004663
000800133-2128             VW BORA TODOS                      0000283914
000800133-2423             CHRYSLER JOURNEY                   0000240717
000800133-2813             PEUGEOT 206 1.6 16v                0000190067
000800133-2830             VW FOX 1.6 2009->                  0000247493
000800133-2865             VW VENTO 2.0T - TDI                0000219542
000800133-2955             FORD FIESTA KINETIC                0000224116
000800133-2966             CHEVROLET CRUZE 2.0 DIESEL         0000255286
000800133-2983             VW AMAROK                          0000250543
0008002E-0662              FORD RANGER                        0000284931
0008002E-2296              TOYOTA HILUX 2009->                0000306275
0008002E-2993              FORD FOCUS 2.0 2010->              0000278663
000800357S-4000            FORD FOCUS 2.0 2010->              0000903071
000800363-1568             DODGE RAM 2500 6.7L                0001212904
000800369-3530TS           FORD FIESTA KINETIC                0001475305
000800369-9503TFK          VW VENTO 2.0Tsi 2010->             0001624885
000800377-1561KP           DODGE RAM 1500 5.7L                0001928280
000800377-1566KP           JEEP WRANGLER 3.6                  0001728558
0008004RR-2801             2,75" BI-CONICO                    0000466358
0008004RU-4960             2,75" CONICO                       0000232078
000800599-5050             KIT LIMPIEZA ATOMIZADOR            0000076738
0009001LS0836              CLIO RN R19,RE Y RN MOT 1.6 RNi RT 0000006050
0009001LS218               SCENIC MEGANE.RT RXE KANGOO RN     0000005389
0009001UHE601/4            ELEMENTO DE ACEITE                 0000003452
0009001UO141               TOYOTA 1.8D-4WD-WAGON 2.0          0000023175
0009001UO161               TOYOTA TOYOACE-DINA (MOTOR 1W)     0000017608
0009001UO215               NISSAN VAN-PATHFINDER 4WD-1.8 TODOS0000008212
0009001UO221               NISSAN 720D 1.8 PATROL LD20 ED30   0000008286
0009001UO351               MONTERO INTERCOOLER,CANTER 93/95   0000022491
0009001UO490               MAZDA 2000                         0000009594
0009001UO532               ISUZU LUV.NAFTERA                  0000007286
0009001UO570               HONDA LEGEN NSX 3.0                0000009884
0009001UO752               MAZDA BY PASS                      0000021721
0009001UOC021130/1         VW.PASSAT C/MOT.1.9 TURBODIESEL    0000007501
0009001UOC02712/43         FORD KA,FIESTA 1.3i 96 EN ADEL.    0000005184
0009001UOC02719/26         FIAT MAREA MOTOR 2.0 Mpi           0000004567
0009001UOC02724/4          FIAT DUCATO 1.9 DIESEL 96->        0000008038
0009001UOC02815/80         R9/11/12/18/TRAFIC 1400 Y 1600/CLIO0000004834
0009001UOC02830            SEAT CBA.CLX,1.9 T.DIESEL 98->     0000009151
0009001UOC02840            CITROEN XN,3.0i,BOXER 1.9,605 3.0i 0000007780
0009001UOC02916/2          ESCORT,R.ROVER,DICOVERY,CARAVAN.   0000004513
0009001UOC02921/4          ROVER 220,420,MOT.2.0i PERKINS     0000007780
0009001UOC02927/1          M.BENZ,SPRINTER,2.5,F100,2.5i 96-> 0000008801
0009001UOC02932            R.EXPRESS Y CLIO MOT.1.9 DIESEL    0000004811
0009001UOC211102/4         VOLVO NL10 INTERCOOLER,NL12        0000016074
0009001UOC21126            DUNA SDV/SIENA/UNO/125/128         0000005286
0009001UOC21142/1          FIAT CAM 120-130-150               0000012109
0009001UOC21168/5          M.BENZ 710,LN914,L914 INTERN.TURBO 0000010201
0009001UOC2712/12          CHEVETTE 1.4-1.6-LUMINA V6         0000003577
0009001UOC2712/22          CHEVR BRAS NAFT.OPEL ASTRA-VECTRA  0000004977
0009001UOC2713/16          CITR IMP-PALIO SIENA TD-504 505    0000004587
0009001UOC2915/9           ESCORT SIERRA 1.6                  0000007041
0009001UOC2920/7           SCANIA TODOS                       0000005452
0009001UOC2931             FIAT 1500 y 1600                   0000004732
0009001UOC2934             CHEVR y FORD MOT MAXION y PERKINS  0000006513
0009001UOC2936/8           CHEVR 4 y 6 cil.TODOS              0000006184
0009001UOC2940/18          FORD MWM 229-4.4 cil               0000007872
0009001UOC2962             FORD MWM 229-6.6 cil.DEUTZ         0000008903
0009002A0206               SUBARU LEGACY 1.8                  0000022834
0009002A0304               MITSUBISHI LANCER 1.3/1.5/1.6/2.0  0000022657
0009002A0309               MITSUBISHI ECLIPSE 96/98.LANCER16000000042315
0009002A0326-1             MITSUBISHI CANTER DESDE 1996       0000021308
0009002A0407V              MAZDA MX3 INYECCION                0000033474
0009002A0445S              MAZDA B2200,E2220                  0000022874
0009002A0915               SUZUKI VITARA 3 PUERTAS            0000014672
0009002A0936               SUZUKI BALENO 95 EN ADELANTE       0000022667
0009002A2101               CHEVROLET NPR (mot isuzu 4.8 )     0000062435
0009002A2400               KIA CERES 2.2 D 90->               0000019570
0009002CAF2010             FIAT 133/IAVA/147C/147GL           0000002227
0009002CAF2020             R12,R12TL,GTL HASTA 82             0000003577
0009002CAF2024T            TRAFIC,RODEO,R18GTD,R21 NEV.DIESEL 0000008027
0009002CAF2035             SIERRA 2.3                         0000005009
0009002CAF2038             TEMPRA                             0000005443
0009002CAF2072             DUNA SD Y SDL,FIORINO DIESL,147    0000003877
0009002CAF2074             PEUGEOT 505 SRD MOT.2.2 INYECCION  0000004081
0009002CAF2077             PEUGEOT 504 PICK-UP DIESEL         0000012205
0009002CAF2081             F100 (MOTOR 3.6)                   0000008101
0009002CAF2083             PATHFINDER                         0000012824
0009002CAF2095             PEUGEOT 106 XT,205 SXI,306 XS M.1.60000005866
0009002CAF2247             TOYOTA HILUX LANDCRUIZER           0000019570
0009002CAF2249             TROOPER 3.1 TURBO DIESEL           0000019056
0009002CAF2346             FORD RANGER PICK UP (CONO.DIA.EXT  0000012694
0009002CAF5139             BLAZER 2.2i 97 ADEL.S10 2.2MPFI 98 0000020293
0009002CAF5180             CLIO EXPRESS MOD.NUEVO             0000012567
0009002CAF5211             MITSUBISHI CANTER N OR.ME 017242   0000032547
0009002CAF813V             SUBARU JUSTY                       0000006689
0009002PAF0034             FIAT PUNTO 90 C/MOT 1.6 MPi        0000011942
0009002PAF0037             VW GOLF.ESCARABAJO.ESCORT 1.6      0000007872
0009002PAF0058             CHEVR BLAZER                       0000007761
0009002PAF0071             F100-F150 U.S.A.                   0000007955
0009002PAF0075             FORD KA                            0000007336
0009002PAF0100             CHEVR LUMINA                       0000007595
0009002PAF0107             CITROEN XANTIA                     0000007720
0009002PAF0111             FIAT UNO 45/60 1.6i/1.8i           0000004864
0009002PAF0116             RENAULT TRAFFIC NAC-OPEL KADETTE   0000008645
0009002PAF0137             VW GOLF 1.8GL-2.0GTI 16v-1.9 DIESEL0000008727
0009002PAF0147             RENAULT LAGUNA 1.8/2.0i            0000007028
0009002PAF0155             VECTRA GL-GLS-CD (BRASIL)          0000008337
0009002PAF2296             GALAXY-ORION-P405                  0000005018
0009002PAF2300             VW GOLF Y PASSAT                   0000010815
0009002PAF2337             FORD EXPLORER y RANGER             0000011536
0009002PAF2343             FILTRO AIRE TIPO PANEL             0000012230
